{
	"data": {
		"bytecode": {
			"linkReferences": {},
			"object": "60806040523480156200001157600080fd5b506000620000246200020760201b60201c565b9050806000806101000a81548173ffffffffffffffffffffffffffffffffffffffff021916908373ffffffffffffffffffffffffffffffffffffffff1602179055508073ffffffffffffffffffffffffffffffffffffffff16600073ffffffffffffffffffffffffffffffffffffffff167f8be0079c531659141344cd1fd0a4f28419497f9722a3daafe3b4186f6b6457e060405160405180910390a3506040518060400160405280600381526020017f5858540000000000000000000000000000000000000000000000000000000000815250600790805190602001906200010f92919062000d50565b506040518060400160405280600381526020017f5858540000000000000000000000000000000000000000000000000000000000815250600690805190602001906200015d92919062000d50565b506006600560006101000a81548160ff021916908360ff1602179055506000600481905550620001926200020f60201b60201c565b6000600a60006101000a81548160ff021916908360ff160217905550600073ffffffffffffffffffffffffffffffffffffffff167fd6717f327e0cb88b4a97a7f67a453e9258252c34937ccbdd86de7cb840e7def3600454604051620001f9919062000e11565b60405180910390a26200111a565b600033905090565b6040518060600160405280600560009054906101000a900460ff1660ff16600a6200023b919062000e89565b60e962000249919062000fc6565b8152602001600560009054906101000a900460ff1660ff16600a6200026f919062000e89565b620186a06200027f919062000fc6565b8152602001600160ff16815250600260008060ff168152602001908152602001600020600082015181600001556020820151816001015560408201518160020160006101000a81548160ff021916908360ff1602179055509050506040518060600160405280600560009054906101000a900460ff1660ff16600a62000306919062000e89565b609062000314919062000fc6565b8152602001600560009054906101000a900460ff1660ff16600a6200033a919062000e89565b620f42406200034a919062000fc6565b8152602001600260ff1681525060026000600160ff168152602001908152602001600020600082015181600001556020820151816001015560408201518160020160006101000a81548160ff021916908360ff1602179055509050506040518060600160405280600560009054906101000a900460ff1660ff16600a620003d2919062000e89565b6059620003e0919062000fc6565b8152602001600560009054906101000a900460ff1660ff16600a62000406919062000e89565b624c4b4062000416919062000fc6565b8152602001600360ff1681525060026000600260ff168152602001908152602001600020600082015181600001556020820151816001015560408201518160020160006101000a81548160ff021916908360ff1602179055509050506040518060600160405280600560009054906101000a900460ff1660ff16600a6200049e919062000e89565b6037620004ac919062000fc6565b8152602001600560009054906101000a900460ff1660ff16600a620004d2919062000e89565b62989680620004e2919062000fc6565b8152602001600460ff1681525060026000600360ff168152602001908152602001600020600082015181600001556020820151816001015560408201518160020160006101000a81548160ff021916908360ff1602179055509050506040518060600160405280600560009054906101000a900460ff1660ff16600a6200056a919062000e89565b602262000578919062000fc6565b8152602001600560009054906101000a900460ff1660ff16600a6200059e919062000e89565b6301312d00620005af919062000fc6565b8152602001600560ff1681525060026000600460ff168152602001908152602001600020600082015181600001556020820151816001015560408201518160020160006101000a81548160ff021916908360ff1602179055509050506040518060600160405280600560009054906101000a900460ff1660ff16600a62000637919062000e89565b601562000645919062000fc6565b8152602001600560009054906101000a900460ff1660ff16600a6200066b919062000e89565b6301c9c3806200067c919062000fc6565b8152602001600660ff1681525060026000600560ff168152602001908152602001600020600082015181600001556020820151816001015560408201518160020160006101000a81548160ff021916908360ff1602179055509050506040518060600160405280600560009054906101000a900460ff1660ff16600a62000704919062000e89565b600d62000712919062000fc6565b8152602001600560009054906101000a900460ff1660ff16600a62000738919062000e89565b6302625a0062000749919062000fc6565b8152602001600760ff1681525060026000600660ff168152602001908152602001600020600082015181600001556020820151816001015560408201518160020160006101000a81548160ff021916908360ff1602179055509050506040518060600160405280600560009054906101000a900460ff1660ff16600a620007d1919062000e89565b6008620007df919062000fc6565b8152602001600560009054906101000a900460ff1660ff16600a62000805919062000e89565b6302faf08062000816919062000fc6565b8152602001600860ff1681525060026000600760ff168152602001908152602001600020600082015181600001556020820151816001015560408201518160020160006101000a81548160ff021916908360ff1602179055509050506040518060600160405280600560009054906101000a900460ff1660ff16600a6200089e919062000e89565b6005620008ac919062000fc6565b8152602001600560009054906101000a900460ff1660ff16600a620008d2919062000e89565b6303938700620008e3919062000fc6565b8152602001600960ff1681525060026000600860ff168152602001908152602001600020600082015181600001556020820151816001015560408201518160020160006101000a81548160ff021916908360ff1602179055509050506040518060600160405280600560009054906101000a900460ff1660ff16600a6200096b919062000e89565b600362000979919062000fc6565b8152602001600560009054906101000a900460ff1660ff16600a6200099f919062000e89565b63042c1d80620009b0919062000fc6565b8152602001600a60ff1681525060026000600960ff168152602001908152602001600020600082015181600001556020820151816001015560408201518160020160006101000a81548160ff021916908360ff1602179055509050506040518060600160405280600560009054906101000a900460ff1660ff16600a62000a38919062000e89565b600262000a46919062000fc6565b8152602001600560009054906101000a900460ff1660ff16600a62000a6c919062000e89565b6304c4b40062000a7d919062000fc6565b8152602001600b60ff1681525060026000600a60ff168152602001908152602001600020600082015181600001556020820151816001015560408201518160020160006101000a81548160ff021916908360ff1602179055509050506040518060600160405280600560009054906101000a900460ff1660ff16600a62000b05919062000e89565b600162000b13919062000fc6565b8152602001600560009054906101000a900460ff1660ff16600a62000b39919062000e89565b63055d4a8062000b4a919062000fc6565b8152602001600c60ff1681525060026000600b60ff168152602001908152602001600020600082015181600001556020820151816001015560408201518160020160006101000a81548160ff021916908360ff1602179055509050506040518060600160405280600560009054906101000a900460ff1660ff16600a62000bd2919062000e89565b600162000be0919062000fc6565b8152602001600560009054906101000a900460ff1660ff16600a62000c06919062000e89565b6305f5e10062000c17919062000fc6565b8152602001600d60ff1681525060026000600c60ff168152602001908152602001600020600082015181600001556020820151816001015560408201518160020160006101000a81548160ff021916908360ff16021790555090505060405180606001604052806001600560009054906101000a900460ff1662000c9c919062001027565b60ff16600a62000cad919062000e89565b600162000cbb919062000fc6565b8152602001600560009054906101000a900460ff1660ff16600a62000ce1919062000e89565b6305f5e10062000cf2919062000fc6565b8152602001600e60ff1681525060026000600d60ff168152602001908152602001600020600082015181600001556020820151816001015560408201518160020160006101000a81548160ff021916908360ff160217905550905050565b82805462000d5e9062001079565b90600052602060002090601f01602090048101928262000d82576000855562000dce565b82601f1062000d9d57805160ff191683800117855562000dce565b8280016001018555821562000dce579182015b8281111562000dcd57825182559160200191906001019062000db0565b5b50905062000ddd919062000de1565b5090565b5b8082111562000dfc57600081600090555060010162000de2565b5090565b62000e0b8162001062565b82525050565b600060208201905062000e28600083018462000e00565b92915050565b6000808291508390505b600185111562000e805780860481111562000e585762000e57620010af565b5b600185161562000e685780820291505b808102905062000e78856200110d565b945062000e38565b94509492505050565b600062000e968262001062565b915062000ea38362001062565b925062000ed27fffffffffffffffffffffffffffffffffffffffffffffffffffffffffffffffff848462000eda565b905092915050565b60008262000eec576001905062000fbf565b8162000efc576000905062000fbf565b816001811462000f15576002811462000f205762000f56565b600191505062000fbf565b60ff84111562000f355762000f34620010af565b5b8360020a91508482111562000f4f5762000f4e620010af565b5b5062000fbf565b5060208310610133831016604e8410600b841016171562000f905782820a90508381111562000f8a5762000f89620010af565b5b62000fbf565b62000f9f848484600162000e2e565b9250905081840481111562000fb95762000fb8620010af565b5b81810290505b9392505050565b600062000fd38262001062565b915062000fe08362001062565b9250817fffffffffffffffffffffffffffffffffffffffffffffffffffffffffffffffff04831182151516156200101c576200101b620010af565b5b828202905092915050565b600062001034826200106c565b915062001041836200106c565b925082821015620010575762001056620010af565b5b828203905092915050565b6000819050919050565b600060ff82169050919050565b600060028204905060018216806200109257607f821691505b60208210811415620010a957620010a8620010de565b5b50919050565b7f4e487b7100000000000000000000000000000000000000000000000000000000600052601160045260246000fd5b7f4e487b7100000000000000000000000000000000000000000000000000000000600052602260045260246000fd5b60008160011c9050919050565b612486806200112a6000396000f3fe6080604052600436106101025760003560e01c8063771282f611610095578063a0712d6811610064578063a0712d6814610507578063a457c2d714610544578063a9059cbb14610581578063dd62ed3e146105be578063f2fde38b146105fb576102ca565b8063771282f61461045b578063893d20e8146104865780638da5cb5b146104b157806395d89b41146104dc576102ca565b8063313ce567116100d1578063313ce5671461039f57806339509351146103ca57806370a0823114610407578063715018a614610444576102ca565b806306fdde03146102cf578063095ea7b3146102fa57806318160ddd1461033757806323b872dd14610362576102ca565b366102ca57600061013e3460026000600a60009054906101000a900460ff1660ff1660ff16815260200190815260200160002060000154610624565b905060006101578260045461065b90919063ffffffff16565b60026000600a60009054906101000a900460ff1660ff1660ff1681526020019081526020016000206001015410156101ce576101c960045460026000600a60009054906101000a900460ff1660ff1660ff168152602001908152602001600020600101546106b990919063ffffffff16565b6101d0565b815b9050600061023e61022f60026000600a60009054906101000a900460ff1660ff1660ff16815260200190815260200160002060000154610221670de0b6b3a76400008661070390919063ffffffff16565b61077e90919063ffffffff16565b346106b990919063ffffffff16565b905060006102a0826002600060026000600a60009054906101000a900460ff1660ff1660ff16815260200190815260200160002060020160009054906101000a900460ff1660ff1660ff16815260200190815260200160002060000154610624565b905060006102b7828561065b90919063ffffffff16565b90506102c333826107c8565b5050505050005b600080fd5b3480156102db57600080fd5b506102e461084f565b6040516102f19190611cc3565b60405180910390f35b34801561030657600080fd5b50610321600480360381019061031c9190611a4d565b6108e1565b60405161032e9190611ca8565b60405180910390f35b34801561034357600080fd5b5061034c6108ff565b6040516103599190611e25565b60405180910390f35b34801561036e57600080fd5b50610389600480360381019061038491906119fa565b610909565b6040516103969190611ca8565b60405180910390f35b3480156103ab57600080fd5b506103b46109e2565b6040516103c19190611e40565b60405180910390f35b3480156103d657600080fd5b506103f160048036038101906103ec9190611a4d565b6109f9565b6040516103fe9190611ca8565b60405180910390f35b34801561041357600080fd5b5061042e6004803603810190610429919061198d565b610aac565b60405161043b9190611e25565b60405180910390f35b34801561045057600080fd5b50610459610af5565b005b34801561046757600080fd5b50610470610c48565b60405161047d9190611e25565b60405180910390f35b34801561049257600080fd5b5061049b610c52565b6040516104a89190611c8d565b60405180910390f35b3480156104bd57600080fd5b506104c6610c61565b6040516104d39190611c8d565b60405180910390f35b3480156104e857600080fd5b506104f1610c8a565b6040516104fe9190611cc3565b60405180910390f35b34801561051357600080fd5b5061052e60048036038101906105299190611a8d565b610d1c565b60405161053b9190611ca8565b60405180910390f35b34801561055057600080fd5b5061056b60048036038101906105669190611a4d565b610dcd565b6040516105789190611ca8565b60405180910390f35b34801561058d57600080fd5b506105a860048036038101906105a39190611a4d565b610e9a565b6040516105b59190611ca8565b60405180910390f35b3480156105ca57600080fd5b506105e560048036038101906105e091906119ba565b610eb8565b6040516105f29190611e25565b60405180910390f35b34801561060757600080fd5b50610622600480360381019061061d919061198d565b610f3f565b005b6000610653670de0b6b3a7640000610645848661070390919063ffffffff16565b61077e90919063ffffffff16565b905092915050565b600080828461066a9190611e77565b9050838110156106af576040517f08c379a00000000000000000000000000000000000000000000000000000000081526004016106a690611d45565b60405180910390fd5b8091505092915050565b60006106fb83836040518060400160405280601e81526020017f536166654d6174683a207375627472616374696f6e206f766572666c6f770000815250610fe0565b905092915050565b6000808314156107165760009050610778565b600082846107249190611efe565b90508284826107339190611ecd565b14610773576040517f08c379a000000000000000000000000000000000000000000000000000000000815260040161076a90611d65565b60405180910390fd5b809150505b92915050565b60006107c083836040518060400160405280601a81526020017f536166654d6174683a206469766973696f6e206279207a65726f000000000000815250611044565b905092915050565b60006107de60148361077e90919063ffffffff16565b90506108108361080b60146107fd60138761070390919063ffffffff16565b61077e90919063ffffffff16565b6110a7565b61082d3061082860058461077e90919063ffffffff16565b6110a7565b61084a3061084560058461077e90919063ffffffff16565b611231565b505050565b60606007805461085e90612014565b80601f016020809104026020016040519081016040528092919081815260200182805461088a90612014565b80156108d75780601f106108ac576101008083540402835291602001916108d7565b820191906000526020600020905b8154815290600101906020018083116108ba57829003601f168201915b5050505050905090565b60006108f56108ee6113d5565b84846113dd565b6001905092915050565b6000600454905090565b60006109168484846115a8565b6109d7846109226113d5565b6109d2856040518060600160405280602881526020016123bc60289139600360008b73ffffffffffffffffffffffffffffffffffffffff1673ffffffffffffffffffffffffffffffffffffffff16815260200190815260200160002060006109886113d5565b73ffffffffffffffffffffffffffffffffffffffff1673ffffffffffffffffffffffffffffffffffffffff16815260200190815260200160002054610fe09092919063ffffffff16565b6113dd565b600190509392505050565b6000600560009054906101000a900460ff16905090565b6000610aa2610a066113d5565b84610a9d8560036000610a176113d5565b73ffffffffffffffffffffffffffffffffffffffff1673ffffffffffffffffffffffffffffffffffffffff16815260200190815260200160002060008973ffffffffffffffffffffffffffffffffffffffff1673ffffffffffffffffffffffffffffffffffffffff1681526020019081526020016000205461065b90919063ffffffff16565b6113dd565b6001905092915050565b6000600160008373ffffffffffffffffffffffffffffffffffffffff1673ffffffffffffffffffffffffffffffffffffffff168152602001908152602001600020549050919050565b610afd6113d5565b73ffffffffffffffffffffffffffffffffffffffff1660008054906101000a900473ffffffffffffffffffffffffffffffffffffffff1673ffffffffffffffffffffffffffffffffffffffff1614610b8a576040517f08c379a0000000000000000000000000000000000000000000000000000000008152600401610b8190611da5565b60405180910390fd5b600073ffffffffffffffffffffffffffffffffffffffff1660008054906101000a900473ffffffffffffffffffffffffffffffffffffffff1673ffffffffffffffffffffffffffffffffffffffff167f8be0079c531659141344cd1fd0a4f28419497f9722a3daafe3b4186f6b6457e060405160405180910390a360008060006101000a81548173ffffffffffffffffffffffffffffffffffffffff021916908373ffffffffffffffffffffffffffffffffffffffff160217905550565b6000600854905090565b6000610c5c610c61565b905090565b60008060009054906101000a900473ffffffffffffffffffffffffffffffffffffffff16905090565b606060068054610c9990612014565b80601f0160208091040260200160405190810160405280929190818152602001828054610cc590612014565b8015610d125780601f10610ce757610100808354040283529160200191610d12565b820191906000526020600020905b815481529060010190602001808311610cf557829003601f168201915b5050505050905090565b6000610d266113d5565b73ffffffffffffffffffffffffffffffffffffffff1660008054906101000a900473ffffffffffffffffffffffffffffffffffffffff1673ffffffffffffffffffffffffffffffffffffffff1614610db3576040517f08c379a0000000000000000000000000000000000000000000000000000000008152600401610daa90611da5565b60405180910390fd5b610dc4610dbe6113d5565b836110a7565b60019050919050565b6000610e90610dda6113d5565b84610e8b8560405180606001604052806025815260200161240a6025913960036000610e046113d5565b73ffffffffffffffffffffffffffffffffffffffff1673ffffffffffffffffffffffffffffffffffffffff16815260200190815260200160002060008a73ffffffffffffffffffffffffffffffffffffffff1673ffffffffffffffffffffffffffffffffffffffff16815260200190815260200160002054610fe09092919063ffffffff16565b6113dd565b6001905092915050565b6000610eae610ea76113d5565b84846115a8565b6001905092915050565b6000600360008473ffffffffffffffffffffffffffffffffffffffff1673ffffffffffffffffffffffffffffffffffffffff16815260200190815260200160002060008373ffffffffffffffffffffffffffffffffffffffff1673ffffffffffffffffffffffffffffffffffffffff16815260200190815260200160002054905092915050565b610f476113d5565b73ffffffffffffffffffffffffffffffffffffffff1660008054906101000a900473ffffffffffffffffffffffffffffffffffffffff1673ffffffffffffffffffffffffffffffffffffffff1614610fd4576040517f08c379a0000000000000000000000000000000000000000000000000000000008152600401610fcb90611da5565b60405180910390fd5b610fdd81611836565b50565b6000838311158290611028576040517f08c379a000000000000000000000000000000000000000000000000000000000815260040161101f9190611cc3565b60405180910390fd5b50600083856110379190611f58565b9050809150509392505050565b6000808311829061108b576040517f08c379a00000000000000000000000000000000000000000000000000000000081526004016110829190611cc3565b60405180910390fd5b506000838561109a9190611ecd565b9050809150509392505050565b600073ffffffffffffffffffffffffffffffffffffffff168273ffffffffffffffffffffffffffffffffffffffff161415611117576040517f08c379a000000000000000000000000000000000000000000000000000000000815260040161110e90611d85565b60405180910390fd5b61112c8160045461065b90919063ffffffff16565b60048190555061118481600160008573ffffffffffffffffffffffffffffffffffffffff1673ffffffffffffffffffffffffffffffffffffffff1681526020019081526020016000205461065b90919063ffffffff16565b600160008473ffffffffffffffffffffffffffffffffffffffff1673ffffffffffffffffffffffffffffffffffffffff168152602001908152602001600020819055508173ffffffffffffffffffffffffffffffffffffffff16600073ffffffffffffffffffffffffffffffffffffffff167fddf252ad1be2c89b69c2b068fc378daa952ba7f163c4a11628f55a4df523b3ef836040516112259190611e25565b60405180910390a35050565b600073ffffffffffffffffffffffffffffffffffffffff168273ffffffffffffffffffffffffffffffffffffffff1614156112a1576040517f08c379a000000000000000000000000000000000000000000000000000000000815260040161129890611de5565b60405180910390fd5b61130d8160405180606001604052806022815260200161242f60229139600160008673ffffffffffffffffffffffffffffffffffffffff1673ffffffffffffffffffffffffffffffffffffffff16815260200190815260200160002054610fe09092919063ffffffff16565b600160008473ffffffffffffffffffffffffffffffffffffffff1673ffffffffffffffffffffffffffffffffffffffff16815260200190815260200160002081905550611365816004546106b990919063ffffffff16565b600481905550600073ffffffffffffffffffffffffffffffffffffffff168273ffffffffffffffffffffffffffffffffffffffff167fddf252ad1be2c89b69c2b068fc378daa952ba7f163c4a11628f55a4df523b3ef836040516113c99190611e25565b60405180910390a35050565b600033905090565b600073ffffffffffffffffffffffffffffffffffffffff168373ffffffffffffffffffffffffffffffffffffffff16141561144d576040517f08c379a000000000000000000000000000000000000000000000000000000000815260040161144490611d05565b60405180910390fd5b600073ffffffffffffffffffffffffffffffffffffffff168273ffffffffffffffffffffffffffffffffffffffff1614156114bd576040517f08c379a00000000000000000000000000000000000000000000000000000000081526004016114b490611e05565b60405180910390fd5b80600360008573ffffffffffffffffffffffffffffffffffffffff1673ffffffffffffffffffffffffffffffffffffffff16815260200190815260200160002060008473ffffffffffffffffffffffffffffffffffffffff1673ffffffffffffffffffffffffffffffffffffffff168152602001908152602001600020819055508173ffffffffffffffffffffffffffffffffffffffff168373ffffffffffffffffffffffffffffffffffffffff167f8c5be1e5ebec7d5bd14f71427d1e84f3dd0314c0f7b2291e5b200ac8c7c3b9258360405161159b9190611e25565b60405180910390a3505050565b600073ffffffffffffffffffffffffffffffffffffffff168373ffffffffffffffffffffffffffffffffffffffff161415611618576040517f08c379a000000000000000000000000000000000000000000000000000000000815260040161160f90611ce5565b60405180910390fd5b600073ffffffffffffffffffffffffffffffffffffffff168273ffffffffffffffffffffffffffffffffffffffff161415611688576040517f08c379a000000000000000000000000000000000000000000000000000000000815260040161167f90611dc5565b60405180910390fd5b6116f4816040518060600160405280602681526020016123e460269139600160008773ffffffffffffffffffffffffffffffffffffffff1673ffffffffffffffffffffffffffffffffffffffff16815260200190815260200160002054610fe09092919063ffffffff16565b600160008573ffffffffffffffffffffffffffffffffffffffff1673ffffffffffffffffffffffffffffffffffffffff1681526020019081526020016000208190555061178981600160008573ffffffffffffffffffffffffffffffffffffffff1673ffffffffffffffffffffffffffffffffffffffff1681526020019081526020016000205461065b90919063ffffffff16565b600160008473ffffffffffffffffffffffffffffffffffffffff1673ffffffffffffffffffffffffffffffffffffffff168152602001908152602001600020819055508173ffffffffffffffffffffffffffffffffffffffff168373ffffffffffffffffffffffffffffffffffffffff167fddf252ad1be2c89b69c2b068fc378daa952ba7f163c4a11628f55a4df523b3ef836040516118299190611e25565b60405180910390a3505050565b600073ffffffffffffffffffffffffffffffffffffffff168173ffffffffffffffffffffffffffffffffffffffff1614156118a6576040517f08c379a000000000000000000000000000000000000000000000000000000000815260040161189d90611d25565b60405180910390fd5b8073ffffffffffffffffffffffffffffffffffffffff1660008054906101000a900473ffffffffffffffffffffffffffffffffffffffff1673ffffffffffffffffffffffffffffffffffffffff167f8be0079c531659141344cd1fd0a4f28419497f9722a3daafe3b4186f6b6457e060405160405180910390a3806000806101000a81548173ffffffffffffffffffffffffffffffffffffffff021916908373ffffffffffffffffffffffffffffffffffffffff16021790555050565b6000813590506119728161238d565b92915050565b600081359050611987816123a4565b92915050565b6000602082840312156119a3576119a26120d3565b5b60006119b184828501611963565b91505092915050565b600080604083850312156119d1576119d06120d3565b5b60006119df85828601611963565b92505060206119f085828601611963565b9150509250929050565b600080600060608486031215611a1357611a126120d3565b5b6000611a2186828701611963565b9350506020611a3286828701611963565b9250506040611a4386828701611978565b9150509250925092565b60008060408385031215611a6457611a636120d3565b5b6000611a7285828601611963565b9250506020611a8385828601611978565b9150509250929050565b600060208284031215611aa357611aa26120d3565b5b6000611ab184828501611978565b91505092915050565b611ac381611f8c565b82525050565b611ad281611f9e565b82525050565b6000611ae382611e5b565b611aed8185611e66565b9350611afd818560208601611fe1565b611b06816120d8565b840191505092915050565b6000611b1e602583611e66565b9150611b29826120e9565b604082019050919050565b6000611b41602483611e66565b9150611b4c82612138565b604082019050919050565b6000611b64602683611e66565b9150611b6f82612187565b604082019050919050565b6000611b87601b83611e66565b9150611b92826121d6565b602082019050919050565b6000611baa602183611e66565b9150611bb5826121ff565b604082019050919050565b6000611bcd601f83611e66565b9150611bd88261224e565b602082019050919050565b6000611bf0602083611e66565b9150611bfb82612277565b602082019050919050565b6000611c13602383611e66565b9150611c1e826122a0565b604082019050919050565b6000611c36602183611e66565b9150611c41826122ef565b604082019050919050565b6000611c59602283611e66565b9150611c648261233e565b604082019050919050565b611c7881611fca565b82525050565b611c8781611fd4565b82525050565b6000602082019050611ca26000830184611aba565b92915050565b6000602082019050611cbd6000830184611ac9565b92915050565b60006020820190508181036000830152611cdd8184611ad8565b905092915050565b60006020820190508181036000830152611cfe81611b11565b9050919050565b60006020820190508181036000830152611d1e81611b34565b9050919050565b60006020820190508181036000830152611d3e81611b57565b9050919050565b60006020820190508181036000830152611d5e81611b7a565b9050919050565b60006020820190508181036000830152611d7e81611b9d565b9050919050565b60006020820190508181036000830152611d9e81611bc0565b9050919050565b60006020820190508181036000830152611dbe81611be3565b9050919050565b60006020820190508181036000830152611dde81611c06565b9050919050565b60006020820190508181036000830152611dfe81611c29565b9050919050565b60006020820190508181036000830152611e1e81611c4c565b9050919050565b6000602082019050611e3a6000830184611c6f565b92915050565b6000602082019050611e556000830184611c7e565b92915050565b600081519050919050565b600082825260208201905092915050565b6000611e8282611fca565b9150611e8d83611fca565b9250827fffffffffffffffffffffffffffffffffffffffffffffffffffffffffffffffff03821115611ec257611ec1612046565b5b828201905092915050565b6000611ed882611fca565b9150611ee383611fca565b925082611ef357611ef2612075565b5b828204905092915050565b6000611f0982611fca565b9150611f1483611fca565b9250817fffffffffffffffffffffffffffffffffffffffffffffffffffffffffffffffff0483118215151615611f4d57611f4c612046565b5b828202905092915050565b6000611f6382611fca565b9150611f6e83611fca565b925082821015611f8157611f80612046565b5b828203905092915050565b6000611f9782611faa565b9050919050565b60008115159050919050565b600073ffffffffffffffffffffffffffffffffffffffff82169050919050565b6000819050919050565b600060ff82169050919050565b60005b83811015611fff578082015181840152602081019050611fe4565b8381111561200e576000848401525b50505050565b6000600282049050600182168061202c57607f821691505b602082108114156120405761203f6120a4565b5b50919050565b7f4e487b7100000000000000000000000000000000000000000000000000000000600052601160045260246000fd5b7f4e487b7100000000000000000000000000000000000000000000000000000000600052601260045260246000fd5b7f4e487b7100000000000000000000000000000000000000000000000000000000600052602260045260246000fd5b600080fd5b6000601f19601f8301169050919050565b7f42455032303a207472616e736665722066726f6d20746865207a65726f20616460008201527f6472657373000000000000000000000000000000000000000000000000000000602082015250565b7f42455032303a20617070726f76652066726f6d20746865207a65726f2061646460008201527f7265737300000000000000000000000000000000000000000000000000000000602082015250565b7f4f776e61626c653a206e6577206f776e657220697320746865207a65726f206160008201527f6464726573730000000000000000000000000000000000000000000000000000602082015250565b7f536166654d6174683a206164646974696f6e206f766572666c6f770000000000600082015250565b7f536166654d6174683a206d756c7469706c69636174696f6e206f766572666c6f60008201527f7700000000000000000000000000000000000000000000000000000000000000602082015250565b7f42455032303a206d696e7420746f20746865207a65726f206164647265737300600082015250565b7f4f776e61626c653a2063616c6c6572206973206e6f7420746865206f776e6572600082015250565b7f42455032303a207472616e7366657220746f20746865207a65726f206164647260008201527f6573730000000000000000000000000000000000000000000000000000000000602082015250565b7f42455032303a206275726e2066726f6d20746865207a65726f2061646472657360008201527f7300000000000000000000000000000000000000000000000000000000000000602082015250565b7f42455032303a20617070726f766520746f20746865207a65726f20616464726560008201527f7373000000000000000000000000000000000000000000000000000000000000602082015250565b61239681611f8c565b81146123a157600080fd5b50565b6123ad81611fca565b81146123b857600080fd5b5056fe42455032303a207472616e7366657220616d6f756e74206578636565647320616c6c6f77616e636542455032303a207472616e7366657220616d6f756e7420657863656564732062616c616e636542455032303a2064656372656173656420616c6c6f77616e63652062656c6f77207a65726f42455032303a206275726e20616d6f756e7420657863656564732062616c616e6365a26469706673582212207aad81303596506fab4c36078e2a857ca6442342321a32d3358654f33e73448564736f6c63430008070033",
			"opcodes": "PUSH1 0x80 PUSH1 0x40 MSTORE CALLVALUE DUP1 ISZERO PUSH3 0x11 JUMPI PUSH1 0x0 DUP1 REVERT JUMPDEST POP PUSH1 0x0 PUSH3 0x24 PUSH3 0x207 PUSH1 0x20 SHL PUSH1 0x20 SHR JUMP JUMPDEST SWAP1 POP DUP1 PUSH1 0x0 DUP1 PUSH2 0x100 EXP DUP2 SLOAD DUP2 PUSH20 0xFFFFFFFFFFFFFFFFFFFFFFFFFFFFFFFFFFFFFFFF MUL NOT AND SWAP1 DUP4 PUSH20 0xFFFFFFFFFFFFFFFFFFFFFFFFFFFFFFFFFFFFFFFF AND MUL OR SWAP1 SSTORE POP DUP1 PUSH20 0xFFFFFFFFFFFFFFFFFFFFFFFFFFFFFFFFFFFFFFFF AND PUSH1 0x0 PUSH20 0xFFFFFFFFFFFFFFFFFFFFFFFFFFFFFFFFFFFFFFFF AND PUSH32 0x8BE0079C531659141344CD1FD0A4F28419497F9722A3DAAFE3B4186F6B6457E0 PUSH1 0x40 MLOAD PUSH1 0x40 MLOAD DUP1 SWAP2 SUB SWAP1 LOG3 POP PUSH1 0x40 MLOAD DUP1 PUSH1 0x40 ADD PUSH1 0x40 MSTORE DUP1 PUSH1 0x3 DUP2 MSTORE PUSH1 0x20 ADD PUSH32 0x5858540000000000000000000000000000000000000000000000000000000000 DUP2 MSTORE POP PUSH1 0x7 SWAP1 DUP1 MLOAD SWAP1 PUSH1 0x20 ADD SWAP1 PUSH3 0x10F SWAP3 SWAP2 SWAP1 PUSH3 0xD50 JUMP JUMPDEST POP PUSH1 0x40 MLOAD DUP1 PUSH1 0x40 ADD PUSH1 0x40 MSTORE DUP1 PUSH1 0x3 DUP2 MSTORE PUSH1 0x20 ADD PUSH32 0x5858540000000000000000000000000000000000000000000000000000000000 DUP2 MSTORE POP PUSH1 0x6 SWAP1 DUP1 MLOAD SWAP1 PUSH1 0x20 ADD SWAP1 PUSH3 0x15D SWAP3 SWAP2 SWAP1 PUSH3 0xD50 JUMP JUMPDEST POP PUSH1 0x6 PUSH1 0x5 PUSH1 0x0 PUSH2 0x100 EXP DUP2 SLOAD DUP2 PUSH1 0xFF MUL NOT AND SWAP1 DUP4 PUSH1 0xFF AND MUL OR SWAP1 SSTORE POP PUSH1 0x0 PUSH1 0x4 DUP2 SWAP1 SSTORE POP PUSH3 0x192 PUSH3 0x20F PUSH1 0x20 SHL PUSH1 0x20 SHR JUMP JUMPDEST PUSH1 0x0 PUSH1 0xA PUSH1 0x0 PUSH2 0x100 EXP DUP2 SLOAD DUP2 PUSH1 0xFF MUL NOT AND SWAP1 DUP4 PUSH1 0xFF AND MUL OR SWAP1 SSTORE POP PUSH1 0x0 PUSH20 0xFFFFFFFFFFFFFFFFFFFFFFFFFFFFFFFFFFFFFFFF AND PUSH32 0xD6717F327E0CB88B4A97A7F67A453E9258252C34937CCBDD86DE7CB840E7DEF3 PUSH1 0x4 SLOAD PUSH1 0x40 MLOAD PUSH3 0x1F9 SWAP2 SWAP1 PUSH3 0xE11 JUMP JUMPDEST PUSH1 0x40 MLOAD DUP1 SWAP2 SUB SWAP1 LOG2 PUSH3 0x111A JUMP JUMPDEST PUSH1 0x0 CALLER SWAP1 POP SWAP1 JUMP JUMPDEST PUSH1 0x40 MLOAD DUP1 PUSH1 0x60 ADD PUSH1 0x40 MSTORE DUP1 PUSH1 0x5 PUSH1 0x0 SWAP1 SLOAD SWAP1 PUSH2 0x100 EXP SWAP1 DIV PUSH1 0xFF AND PUSH1 0xFF AND PUSH1 0xA PUSH3 0x23B SWAP2 SWAP1 PUSH3 0xE89 JUMP JUMPDEST PUSH1 0xE9 PUSH3 0x249 SWAP2 SWAP1 PUSH3 0xFC6 JUMP JUMPDEST DUP2 MSTORE PUSH1 0x20 ADD PUSH1 0x5 PUSH1 0x0 SWAP1 SLOAD SWAP1 PUSH2 0x100 EXP SWAP1 DIV PUSH1 0xFF AND PUSH1 0xFF AND PUSH1 0xA PUSH3 0x26F SWAP2 SWAP1 PUSH3 0xE89 JUMP JUMPDEST PUSH3 0x186A0 PUSH3 0x27F SWAP2 SWAP1 PUSH3 0xFC6 JUMP JUMPDEST DUP2 MSTORE PUSH1 0x20 ADD PUSH1 0x1 PUSH1 0xFF AND DUP2 MSTORE POP PUSH1 0x2 PUSH1 0x0 DUP1 PUSH1 0xFF AND DUP2 MSTORE PUSH1 0x20 ADD SWAP1 DUP2 MSTORE PUSH1 0x20 ADD PUSH1 0x0 KECCAK256 PUSH1 0x0 DUP3 ADD MLOAD DUP2 PUSH1 0x0 ADD SSTORE PUSH1 0x20 DUP3 ADD MLOAD DUP2 PUSH1 0x1 ADD SSTORE PUSH1 0x40 DUP3 ADD MLOAD DUP2 PUSH1 0x2 ADD PUSH1 0x0 PUSH2 0x100 EXP DUP2 SLOAD DUP2 PUSH1 0xFF MUL NOT AND SWAP1 DUP4 PUSH1 0xFF AND MUL OR SWAP1 SSTORE POP SWAP1 POP POP PUSH1 0x40 MLOAD DUP1 PUSH1 0x60 ADD PUSH1 0x40 MSTORE DUP1 PUSH1 0x5 PUSH1 0x0 SWAP1 SLOAD SWAP1 PUSH2 0x100 EXP SWAP1 DIV PUSH1 0xFF AND PUSH1 0xFF AND PUSH1 0xA PUSH3 0x306 SWAP2 SWAP1 PUSH3 0xE89 JUMP JUMPDEST PUSH1 0x90 PUSH3 0x314 SWAP2 SWAP1 PUSH3 0xFC6 JUMP JUMPDEST DUP2 MSTORE PUSH1 0x20 ADD PUSH1 0x5 PUSH1 0x0 SWAP1 SLOAD SWAP1 PUSH2 0x100 EXP SWAP1 DIV PUSH1 0xFF AND PUSH1 0xFF AND PUSH1 0xA PUSH3 0x33A SWAP2 SWAP1 PUSH3 0xE89 JUMP JUMPDEST PUSH3 0xF4240 PUSH3 0x34A SWAP2 SWAP1 PUSH3 0xFC6 JUMP JUMPDEST DUP2 MSTORE PUSH1 0x20 ADD PUSH1 0x2 PUSH1 0xFF AND DUP2 MSTORE POP PUSH1 0x2 PUSH1 0x0 PUSH1 0x1 PUSH1 0xFF AND DUP2 MSTORE PUSH1 0x20 ADD SWAP1 DUP2 MSTORE PUSH1 0x20 ADD PUSH1 0x0 KECCAK256 PUSH1 0x0 DUP3 ADD MLOAD DUP2 PUSH1 0x0 ADD SSTORE PUSH1 0x20 DUP3 ADD MLOAD DUP2 PUSH1 0x1 ADD SSTORE PUSH1 0x40 DUP3 ADD MLOAD DUP2 PUSH1 0x2 ADD PUSH1 0x0 PUSH2 0x100 EXP DUP2 SLOAD DUP2 PUSH1 0xFF MUL NOT AND SWAP1 DUP4 PUSH1 0xFF AND MUL OR SWAP1 SSTORE POP SWAP1 POP POP PUSH1 0x40 MLOAD DUP1 PUSH1 0x60 ADD PUSH1 0x40 MSTORE DUP1 PUSH1 0x5 PUSH1 0x0 SWAP1 SLOAD SWAP1 PUSH2 0x100 EXP SWAP1 DIV PUSH1 0xFF AND PUSH1 0xFF AND PUSH1 0xA PUSH3 0x3D2 SWAP2 SWAP1 PUSH3 0xE89 JUMP JUMPDEST PUSH1 0x59 PUSH3 0x3E0 SWAP2 SWAP1 PUSH3 0xFC6 JUMP JUMPDEST DUP2 MSTORE PUSH1 0x20 ADD PUSH1 0x5 PUSH1 0x0 SWAP1 SLOAD SWAP1 PUSH2 0x100 EXP SWAP1 DIV PUSH1 0xFF AND PUSH1 0xFF AND PUSH1 0xA PUSH3 0x406 SWAP2 SWAP1 PUSH3 0xE89 JUMP JUMPDEST PUSH3 0x4C4B40 PUSH3 0x416 SWAP2 SWAP1 PUSH3 0xFC6 JUMP JUMPDEST DUP2 MSTORE PUSH1 0x20 ADD PUSH1 0x3 PUSH1 0xFF AND DUP2 MSTORE POP PUSH1 0x2 PUSH1 0x0 PUSH1 0x2 PUSH1 0xFF AND DUP2 MSTORE PUSH1 0x20 ADD SWAP1 DUP2 MSTORE PUSH1 0x20 ADD PUSH1 0x0 KECCAK256 PUSH1 0x0 DUP3 ADD MLOAD DUP2 PUSH1 0x0 ADD SSTORE PUSH1 0x20 DUP3 ADD MLOAD DUP2 PUSH1 0x1 ADD SSTORE PUSH1 0x40 DUP3 ADD MLOAD DUP2 PUSH1 0x2 ADD PUSH1 0x0 PUSH2 0x100 EXP DUP2 SLOAD DUP2 PUSH1 0xFF MUL NOT AND SWAP1 DUP4 PUSH1 0xFF AND MUL OR SWAP1 SSTORE POP SWAP1 POP POP PUSH1 0x40 MLOAD DUP1 PUSH1 0x60 ADD PUSH1 0x40 MSTORE DUP1 PUSH1 0x5 PUSH1 0x0 SWAP1 SLOAD SWAP1 PUSH2 0x100 EXP SWAP1 DIV PUSH1 0xFF AND PUSH1 0xFF AND PUSH1 0xA PUSH3 0x49E SWAP2 SWAP1 PUSH3 0xE89 JUMP JUMPDEST PUSH1 0x37 PUSH3 0x4AC SWAP2 SWAP1 PUSH3 0xFC6 JUMP JUMPDEST DUP2 MSTORE PUSH1 0x20 ADD PUSH1 0x5 PUSH1 0x0 SWAP1 SLOAD SWAP1 PUSH2 0x100 EXP SWAP1 DIV PUSH1 0xFF AND PUSH1 0xFF AND PUSH1 0xA PUSH3 0x4D2 SWAP2 SWAP1 PUSH3 0xE89 JUMP JUMPDEST PUSH3 0x989680 PUSH3 0x4E2 SWAP2 SWAP1 PUSH3 0xFC6 JUMP JUMPDEST DUP2 MSTORE PUSH1 0x20 ADD PUSH1 0x4 PUSH1 0xFF AND DUP2 MSTORE POP PUSH1 0x2 PUSH1 0x0 PUSH1 0x3 PUSH1 0xFF AND DUP2 MSTORE PUSH1 0x20 ADD SWAP1 DUP2 MSTORE PUSH1 0x20 ADD PUSH1 0x0 KECCAK256 PUSH1 0x0 DUP3 ADD MLOAD DUP2 PUSH1 0x0 ADD SSTORE PUSH1 0x20 DUP3 ADD MLOAD DUP2 PUSH1 0x1 ADD SSTORE PUSH1 0x40 DUP3 ADD MLOAD DUP2 PUSH1 0x2 ADD PUSH1 0x0 PUSH2 0x100 EXP DUP2 SLOAD DUP2 PUSH1 0xFF MUL NOT AND SWAP1 DUP4 PUSH1 0xFF AND MUL OR SWAP1 SSTORE POP SWAP1 POP POP PUSH1 0x40 MLOAD DUP1 PUSH1 0x60 ADD PUSH1 0x40 MSTORE DUP1 PUSH1 0x5 PUSH1 0x0 SWAP1 SLOAD SWAP1 PUSH2 0x100 EXP SWAP1 DIV PUSH1 0xFF AND PUSH1 0xFF AND PUSH1 0xA PUSH3 0x56A SWAP2 SWAP1 PUSH3 0xE89 JUMP JUMPDEST PUSH1 0x22 PUSH3 0x578 SWAP2 SWAP1 PUSH3 0xFC6 JUMP JUMPDEST DUP2 MSTORE PUSH1 0x20 ADD PUSH1 0x5 PUSH1 0x0 SWAP1 SLOAD SWAP1 PUSH2 0x100 EXP SWAP1 DIV PUSH1 0xFF AND PUSH1 0xFF AND PUSH1 0xA PUSH3 0x59E SWAP2 SWAP1 PUSH3 0xE89 JUMP JUMPDEST PUSH4 0x1312D00 PUSH3 0x5AF SWAP2 SWAP1 PUSH3 0xFC6 JUMP JUMPDEST DUP2 MSTORE PUSH1 0x20 ADD PUSH1 0x5 PUSH1 0xFF AND DUP2 MSTORE POP PUSH1 0x2 PUSH1 0x0 PUSH1 0x4 PUSH1 0xFF AND DUP2 MSTORE PUSH1 0x20 ADD SWAP1 DUP2 MSTORE PUSH1 0x20 ADD PUSH1 0x0 KECCAK256 PUSH1 0x0 DUP3 ADD MLOAD DUP2 PUSH1 0x0 ADD SSTORE PUSH1 0x20 DUP3 ADD MLOAD DUP2 PUSH1 0x1 ADD SSTORE PUSH1 0x40 DUP3 ADD MLOAD DUP2 PUSH1 0x2 ADD PUSH1 0x0 PUSH2 0x100 EXP DUP2 SLOAD DUP2 PUSH1 0xFF MUL NOT AND SWAP1 DUP4 PUSH1 0xFF AND MUL OR SWAP1 SSTORE POP SWAP1 POP POP PUSH1 0x40 MLOAD DUP1 PUSH1 0x60 ADD PUSH1 0x40 MSTORE DUP1 PUSH1 0x5 PUSH1 0x0 SWAP1 SLOAD SWAP1 PUSH2 0x100 EXP SWAP1 DIV PUSH1 0xFF AND PUSH1 0xFF AND PUSH1 0xA PUSH3 0x637 SWAP2 SWAP1 PUSH3 0xE89 JUMP JUMPDEST PUSH1 0x15 PUSH3 0x645 SWAP2 SWAP1 PUSH3 0xFC6 JUMP JUMPDEST DUP2 MSTORE PUSH1 0x20 ADD PUSH1 0x5 PUSH1 0x0 SWAP1 SLOAD SWAP1 PUSH2 0x100 EXP SWAP1 DIV PUSH1 0xFF AND PUSH1 0xFF AND PUSH1 0xA PUSH3 0x66B SWAP2 SWAP1 PUSH3 0xE89 JUMP JUMPDEST PUSH4 0x1C9C380 PUSH3 0x67C SWAP2 SWAP1 PUSH3 0xFC6 JUMP JUMPDEST DUP2 MSTORE PUSH1 0x20 ADD PUSH1 0x6 PUSH1 0xFF AND DUP2 MSTORE POP PUSH1 0x2 PUSH1 0x0 PUSH1 0x5 PUSH1 0xFF AND DUP2 MSTORE PUSH1 0x20 ADD SWAP1 DUP2 MSTORE PUSH1 0x20 ADD PUSH1 0x0 KECCAK256 PUSH1 0x0 DUP3 ADD MLOAD DUP2 PUSH1 0x0 ADD SSTORE PUSH1 0x20 DUP3 ADD MLOAD DUP2 PUSH1 0x1 ADD SSTORE PUSH1 0x40 DUP3 ADD MLOAD DUP2 PUSH1 0x2 ADD PUSH1 0x0 PUSH2 0x100 EXP DUP2 SLOAD DUP2 PUSH1 0xFF MUL NOT AND SWAP1 DUP4 PUSH1 0xFF AND MUL OR SWAP1 SSTORE POP SWAP1 POP POP PUSH1 0x40 MLOAD DUP1 PUSH1 0x60 ADD PUSH1 0x40 MSTORE DUP1 PUSH1 0x5 PUSH1 0x0 SWAP1 SLOAD SWAP1 PUSH2 0x100 EXP SWAP1 DIV PUSH1 0xFF AND PUSH1 0xFF AND PUSH1 0xA PUSH3 0x704 SWAP2 SWAP1 PUSH3 0xE89 JUMP JUMPDEST PUSH1 0xD PUSH3 0x712 SWAP2 SWAP1 PUSH3 0xFC6 JUMP JUMPDEST DUP2 MSTORE PUSH1 0x20 ADD PUSH1 0x5 PUSH1 0x0 SWAP1 SLOAD SWAP1 PUSH2 0x100 EXP SWAP1 DIV PUSH1 0xFF AND PUSH1 0xFF AND PUSH1 0xA PUSH3 0x738 SWAP2 SWAP1 PUSH3 0xE89 JUMP JUMPDEST PUSH4 0x2625A00 PUSH3 0x749 SWAP2 SWAP1 PUSH3 0xFC6 JUMP JUMPDEST DUP2 MSTORE PUSH1 0x20 ADD PUSH1 0x7 PUSH1 0xFF AND DUP2 MSTORE POP PUSH1 0x2 PUSH1 0x0 PUSH1 0x6 PUSH1 0xFF AND DUP2 MSTORE PUSH1 0x20 ADD SWAP1 DUP2 MSTORE PUSH1 0x20 ADD PUSH1 0x0 KECCAK256 PUSH1 0x0 DUP3 ADD MLOAD DUP2 PUSH1 0x0 ADD SSTORE PUSH1 0x20 DUP3 ADD MLOAD DUP2 PUSH1 0x1 ADD SSTORE PUSH1 0x40 DUP3 ADD MLOAD DUP2 PUSH1 0x2 ADD PUSH1 0x0 PUSH2 0x100 EXP DUP2 SLOAD DUP2 PUSH1 0xFF MUL NOT AND SWAP1 DUP4 PUSH1 0xFF AND MUL OR SWAP1 SSTORE POP SWAP1 POP POP PUSH1 0x40 MLOAD DUP1 PUSH1 0x60 ADD PUSH1 0x40 MSTORE DUP1 PUSH1 0x5 PUSH1 0x0 SWAP1 SLOAD SWAP1 PUSH2 0x100 EXP SWAP1 DIV PUSH1 0xFF AND PUSH1 0xFF AND PUSH1 0xA PUSH3 0x7D1 SWAP2 SWAP1 PUSH3 0xE89 JUMP JUMPDEST PUSH1 0x8 PUSH3 0x7DF SWAP2 SWAP1 PUSH3 0xFC6 JUMP JUMPDEST DUP2 MSTORE PUSH1 0x20 ADD PUSH1 0x5 PUSH1 0x0 SWAP1 SLOAD SWAP1 PUSH2 0x100 EXP SWAP1 DIV PUSH1 0xFF AND PUSH1 0xFF AND PUSH1 0xA PUSH3 0x805 SWAP2 SWAP1 PUSH3 0xE89 JUMP JUMPDEST PUSH4 0x2FAF080 PUSH3 0x816 SWAP2 SWAP1 PUSH3 0xFC6 JUMP JUMPDEST DUP2 MSTORE PUSH1 0x20 ADD PUSH1 0x8 PUSH1 0xFF AND DUP2 MSTORE POP PUSH1 0x2 PUSH1 0x0 PUSH1 0x7 PUSH1 0xFF AND DUP2 MSTORE PUSH1 0x20 ADD SWAP1 DUP2 MSTORE PUSH1 0x20 ADD PUSH1 0x0 KECCAK256 PUSH1 0x0 DUP3 ADD MLOAD DUP2 PUSH1 0x0 ADD SSTORE PUSH1 0x20 DUP3 ADD MLOAD DUP2 PUSH1 0x1 ADD SSTORE PUSH1 0x40 DUP3 ADD MLOAD DUP2 PUSH1 0x2 ADD PUSH1 0x0 PUSH2 0x100 EXP DUP2 SLOAD DUP2 PUSH1 0xFF MUL NOT AND SWAP1 DUP4 PUSH1 0xFF AND MUL OR SWAP1 SSTORE POP SWAP1 POP POP PUSH1 0x40 MLOAD DUP1 PUSH1 0x60 ADD PUSH1 0x40 MSTORE DUP1 PUSH1 0x5 PUSH1 0x0 SWAP1 SLOAD SWAP1 PUSH2 0x100 EXP SWAP1 DIV PUSH1 0xFF AND PUSH1 0xFF AND PUSH1 0xA PUSH3 0x89E SWAP2 SWAP1 PUSH3 0xE89 JUMP JUMPDEST PUSH1 0x5 PUSH3 0x8AC SWAP2 SWAP1 PUSH3 0xFC6 JUMP JUMPDEST DUP2 MSTORE PUSH1 0x20 ADD PUSH1 0x5 PUSH1 0x0 SWAP1 SLOAD SWAP1 PUSH2 0x100 EXP SWAP1 DIV PUSH1 0xFF AND PUSH1 0xFF AND PUSH1 0xA PUSH3 0x8D2 SWAP2 SWAP1 PUSH3 0xE89 JUMP JUMPDEST PUSH4 0x3938700 PUSH3 0x8E3 SWAP2 SWAP1 PUSH3 0xFC6 JUMP JUMPDEST DUP2 MSTORE PUSH1 0x20 ADD PUSH1 0x9 PUSH1 0xFF AND DUP2 MSTORE POP PUSH1 0x2 PUSH1 0x0 PUSH1 0x8 PUSH1 0xFF AND DUP2 MSTORE PUSH1 0x20 ADD SWAP1 DUP2 MSTORE PUSH1 0x20 ADD PUSH1 0x0 KECCAK256 PUSH1 0x0 DUP3 ADD MLOAD DUP2 PUSH1 0x0 ADD SSTORE PUSH1 0x20 DUP3 ADD MLOAD DUP2 PUSH1 0x1 ADD SSTORE PUSH1 0x40 DUP3 ADD MLOAD DUP2 PUSH1 0x2 ADD PUSH1 0x0 PUSH2 0x100 EXP DUP2 SLOAD DUP2 PUSH1 0xFF MUL NOT AND SWAP1 DUP4 PUSH1 0xFF AND MUL OR SWAP1 SSTORE POP SWAP1 POP POP PUSH1 0x40 MLOAD DUP1 PUSH1 0x60 ADD PUSH1 0x40 MSTORE DUP1 PUSH1 0x5 PUSH1 0x0 SWAP1 SLOAD SWAP1 PUSH2 0x100 EXP SWAP1 DIV PUSH1 0xFF AND PUSH1 0xFF AND PUSH1 0xA PUSH3 0x96B SWAP2 SWAP1 PUSH3 0xE89 JUMP JUMPDEST PUSH1 0x3 PUSH3 0x979 SWAP2 SWAP1 PUSH3 0xFC6 JUMP JUMPDEST DUP2 MSTORE PUSH1 0x20 ADD PUSH1 0x5 PUSH1 0x0 SWAP1 SLOAD SWAP1 PUSH2 0x100 EXP SWAP1 DIV PUSH1 0xFF AND PUSH1 0xFF AND PUSH1 0xA PUSH3 0x99F SWAP2 SWAP1 PUSH3 0xE89 JUMP JUMPDEST PUSH4 0x42C1D80 PUSH3 0x9B0 SWAP2 SWAP1 PUSH3 0xFC6 JUMP JUMPDEST DUP2 MSTORE PUSH1 0x20 ADD PUSH1 0xA PUSH1 0xFF AND DUP2 MSTORE POP PUSH1 0x2 PUSH1 0x0 PUSH1 0x9 PUSH1 0xFF AND DUP2 MSTORE PUSH1 0x20 ADD SWAP1 DUP2 MSTORE PUSH1 0x20 ADD PUSH1 0x0 KECCAK256 PUSH1 0x0 DUP3 ADD MLOAD DUP2 PUSH1 0x0 ADD SSTORE PUSH1 0x20 DUP3 ADD MLOAD DUP2 PUSH1 0x1 ADD SSTORE PUSH1 0x40 DUP3 ADD MLOAD DUP2 PUSH1 0x2 ADD PUSH1 0x0 PUSH2 0x100 EXP DUP2 SLOAD DUP2 PUSH1 0xFF MUL NOT AND SWAP1 DUP4 PUSH1 0xFF AND MUL OR SWAP1 SSTORE POP SWAP1 POP POP PUSH1 0x40 MLOAD DUP1 PUSH1 0x60 ADD PUSH1 0x40 MSTORE DUP1 PUSH1 0x5 PUSH1 0x0 SWAP1 SLOAD SWAP1 PUSH2 0x100 EXP SWAP1 DIV PUSH1 0xFF AND PUSH1 0xFF AND PUSH1 0xA PUSH3 0xA38 SWAP2 SWAP1 PUSH3 0xE89 JUMP JUMPDEST PUSH1 0x2 PUSH3 0xA46 SWAP2 SWAP1 PUSH3 0xFC6 JUMP JUMPDEST DUP2 MSTORE PUSH1 0x20 ADD PUSH1 0x5 PUSH1 0x0 SWAP1 SLOAD SWAP1 PUSH2 0x100 EXP SWAP1 DIV PUSH1 0xFF AND PUSH1 0xFF AND PUSH1 0xA PUSH3 0xA6C SWAP2 SWAP1 PUSH3 0xE89 JUMP JUMPDEST PUSH4 0x4C4B400 PUSH3 0xA7D SWAP2 SWAP1 PUSH3 0xFC6 JUMP JUMPDEST DUP2 MSTORE PUSH1 0x20 ADD PUSH1 0xB PUSH1 0xFF AND DUP2 MSTORE POP PUSH1 0x2 PUSH1 0x0 PUSH1 0xA PUSH1 0xFF AND DUP2 MSTORE PUSH1 0x20 ADD SWAP1 DUP2 MSTORE PUSH1 0x20 ADD PUSH1 0x0 KECCAK256 PUSH1 0x0 DUP3 ADD MLOAD DUP2 PUSH1 0x0 ADD SSTORE PUSH1 0x20 DUP3 ADD MLOAD DUP2 PUSH1 0x1 ADD SSTORE PUSH1 0x40 DUP3 ADD MLOAD DUP2 PUSH1 0x2 ADD PUSH1 0x0 PUSH2 0x100 EXP DUP2 SLOAD DUP2 PUSH1 0xFF MUL NOT AND SWAP1 DUP4 PUSH1 0xFF AND MUL OR SWAP1 SSTORE POP SWAP1 POP POP PUSH1 0x40 MLOAD DUP1 PUSH1 0x60 ADD PUSH1 0x40 MSTORE DUP1 PUSH1 0x5 PUSH1 0x0 SWAP1 SLOAD SWAP1 PUSH2 0x100 EXP SWAP1 DIV PUSH1 0xFF AND PUSH1 0xFF AND PUSH1 0xA PUSH3 0xB05 SWAP2 SWAP1 PUSH3 0xE89 JUMP JUMPDEST PUSH1 0x1 PUSH3 0xB13 SWAP2 SWAP1 PUSH3 0xFC6 JUMP JUMPDEST DUP2 MSTORE PUSH1 0x20 ADD PUSH1 0x5 PUSH1 0x0 SWAP1 SLOAD SWAP1 PUSH2 0x100 EXP SWAP1 DIV PUSH1 0xFF AND PUSH1 0xFF AND PUSH1 0xA PUSH3 0xB39 SWAP2 SWAP1 PUSH3 0xE89 JUMP JUMPDEST PUSH4 0x55D4A80 PUSH3 0xB4A SWAP2 SWAP1 PUSH3 0xFC6 JUMP JUMPDEST DUP2 MSTORE PUSH1 0x20 ADD PUSH1 0xC PUSH1 0xFF AND DUP2 MSTORE POP PUSH1 0x2 PUSH1 0x0 PUSH1 0xB PUSH1 0xFF AND DUP2 MSTORE PUSH1 0x20 ADD SWAP1 DUP2 MSTORE PUSH1 0x20 ADD PUSH1 0x0 KECCAK256 PUSH1 0x0 DUP3 ADD MLOAD DUP2 PUSH1 0x0 ADD SSTORE PUSH1 0x20 DUP3 ADD MLOAD DUP2 PUSH1 0x1 ADD SSTORE PUSH1 0x40 DUP3 ADD MLOAD DUP2 PUSH1 0x2 ADD PUSH1 0x0 PUSH2 0x100 EXP DUP2 SLOAD DUP2 PUSH1 0xFF MUL NOT AND SWAP1 DUP4 PUSH1 0xFF AND MUL OR SWAP1 SSTORE POP SWAP1 POP POP PUSH1 0x40 MLOAD DUP1 PUSH1 0x60 ADD PUSH1 0x40 MSTORE DUP1 PUSH1 0x5 PUSH1 0x0 SWAP1 SLOAD SWAP1 PUSH2 0x100 EXP SWAP1 DIV PUSH1 0xFF AND PUSH1 0xFF AND PUSH1 0xA PUSH3 0xBD2 SWAP2 SWAP1 PUSH3 0xE89 JUMP JUMPDEST PUSH1 0x1 PUSH3 0xBE0 SWAP2 SWAP1 PUSH3 0xFC6 JUMP JUMPDEST DUP2 MSTORE PUSH1 0x20 ADD PUSH1 0x5 PUSH1 0x0 SWAP1 SLOAD SWAP1 PUSH2 0x100 EXP SWAP1 DIV PUSH1 0xFF AND PUSH1 0xFF AND PUSH1 0xA PUSH3 0xC06 SWAP2 SWAP1 PUSH3 0xE89 JUMP JUMPDEST PUSH4 0x5F5E100 PUSH3 0xC17 SWAP2 SWAP1 PUSH3 0xFC6 JUMP JUMPDEST DUP2 MSTORE PUSH1 0x20 ADD PUSH1 0xD PUSH1 0xFF AND DUP2 MSTORE POP PUSH1 0x2 PUSH1 0x0 PUSH1 0xC PUSH1 0xFF AND DUP2 MSTORE PUSH1 0x20 ADD SWAP1 DUP2 MSTORE PUSH1 0x20 ADD PUSH1 0x0 KECCAK256 PUSH1 0x0 DUP3 ADD MLOAD DUP2 PUSH1 0x0 ADD SSTORE PUSH1 0x20 DUP3 ADD MLOAD DUP2 PUSH1 0x1 ADD SSTORE PUSH1 0x40 DUP3 ADD MLOAD DUP2 PUSH1 0x2 ADD PUSH1 0x0 PUSH2 0x100 EXP DUP2 SLOAD DUP2 PUSH1 0xFF MUL NOT AND SWAP1 DUP4 PUSH1 0xFF AND MUL OR SWAP1 SSTORE POP SWAP1 POP POP PUSH1 0x40 MLOAD DUP1 PUSH1 0x60 ADD PUSH1 0x40 MSTORE DUP1 PUSH1 0x1 PUSH1 0x5 PUSH1 0x0 SWAP1 SLOAD SWAP1 PUSH2 0x100 EXP SWAP1 DIV PUSH1 0xFF AND PUSH3 0xC9C SWAP2 SWAP1 PUSH3 0x1027 JUMP JUMPDEST PUSH1 0xFF AND PUSH1 0xA PUSH3 0xCAD SWAP2 SWAP1 PUSH3 0xE89 JUMP JUMPDEST PUSH1 0x1 PUSH3 0xCBB SWAP2 SWAP1 PUSH3 0xFC6 JUMP JUMPDEST DUP2 MSTORE PUSH1 0x20 ADD PUSH1 0x5 PUSH1 0x0 SWAP1 SLOAD SWAP1 PUSH2 0x100 EXP SWAP1 DIV PUSH1 0xFF AND PUSH1 0xFF AND PUSH1 0xA PUSH3 0xCE1 SWAP2 SWAP1 PUSH3 0xE89 JUMP JUMPDEST PUSH4 0x5F5E100 PUSH3 0xCF2 SWAP2 SWAP1 PUSH3 0xFC6 JUMP JUMPDEST DUP2 MSTORE PUSH1 0x20 ADD PUSH1 0xE PUSH1 0xFF AND DUP2 MSTORE POP PUSH1 0x2 PUSH1 0x0 PUSH1 0xD PUSH1 0xFF AND DUP2 MSTORE PUSH1 0x20 ADD SWAP1 DUP2 MSTORE PUSH1 0x20 ADD PUSH1 0x0 KECCAK256 PUSH1 0x0 DUP3 ADD MLOAD DUP2 PUSH1 0x0 ADD SSTORE PUSH1 0x20 DUP3 ADD MLOAD DUP2 PUSH1 0x1 ADD SSTORE PUSH1 0x40 DUP3 ADD MLOAD DUP2 PUSH1 0x2 ADD PUSH1 0x0 PUSH2 0x100 EXP DUP2 SLOAD DUP2 PUSH1 0xFF MUL NOT AND SWAP1 DUP4 PUSH1 0xFF AND MUL OR SWAP1 SSTORE POP SWAP1 POP POP JUMP JUMPDEST DUP3 DUP1 SLOAD PUSH3 0xD5E SWAP1 PUSH3 0x1079 JUMP JUMPDEST SWAP1 PUSH1 0x0 MSTORE PUSH1 0x20 PUSH1 0x0 KECCAK256 SWAP1 PUSH1 0x1F ADD PUSH1 0x20 SWAP1 DIV DUP2 ADD SWAP3 DUP3 PUSH3 0xD82 JUMPI PUSH1 0x0 DUP6 SSTORE PUSH3 0xDCE JUMP JUMPDEST DUP3 PUSH1 0x1F LT PUSH3 0xD9D JUMPI DUP1 MLOAD PUSH1 0xFF NOT AND DUP4 DUP1 ADD OR DUP6 SSTORE PUSH3 0xDCE JUMP JUMPDEST DUP3 DUP1 ADD PUSH1 0x1 ADD DUP6 SSTORE DUP3 ISZERO PUSH3 0xDCE JUMPI SWAP2 DUP3 ADD JUMPDEST DUP3 DUP2 GT ISZERO PUSH3 0xDCD JUMPI DUP3 MLOAD DUP3 SSTORE SWAP2 PUSH1 0x20 ADD SWAP2 SWAP1 PUSH1 0x1 ADD SWAP1 PUSH3 0xDB0 JUMP JUMPDEST JUMPDEST POP SWAP1 POP PUSH3 0xDDD SWAP2 SWAP1 PUSH3 0xDE1 JUMP JUMPDEST POP SWAP1 JUMP JUMPDEST JUMPDEST DUP1 DUP3 GT ISZERO PUSH3 0xDFC JUMPI PUSH1 0x0 DUP2 PUSH1 0x0 SWAP1 SSTORE POP PUSH1 0x1 ADD PUSH3 0xDE2 JUMP JUMPDEST POP SWAP1 JUMP JUMPDEST PUSH3 0xE0B DUP2 PUSH3 0x1062 JUMP JUMPDEST DUP3 MSTORE POP POP JUMP JUMPDEST PUSH1 0x0 PUSH1 0x20 DUP3 ADD SWAP1 POP PUSH3 0xE28 PUSH1 0x0 DUP4 ADD DUP5 PUSH3 0xE00 JUMP JUMPDEST SWAP3 SWAP2 POP POP JUMP JUMPDEST PUSH1 0x0 DUP1 DUP3 SWAP2 POP DUP4 SWAP1 POP JUMPDEST PUSH1 0x1 DUP6 GT ISZERO PUSH3 0xE80 JUMPI DUP1 DUP7 DIV DUP2 GT ISZERO PUSH3 0xE58 JUMPI PUSH3 0xE57 PUSH3 0x10AF JUMP JUMPDEST JUMPDEST PUSH1 0x1 DUP6 AND ISZERO PUSH3 0xE68 JUMPI DUP1 DUP3 MUL SWAP2 POP JUMPDEST DUP1 DUP2 MUL SWAP1 POP PUSH3 0xE78 DUP6 PUSH3 0x110D JUMP JUMPDEST SWAP5 POP PUSH3 0xE38 JUMP JUMPDEST SWAP5 POP SWAP5 SWAP3 POP POP POP JUMP JUMPDEST PUSH1 0x0 PUSH3 0xE96 DUP3 PUSH3 0x1062 JUMP JUMPDEST SWAP2 POP PUSH3 0xEA3 DUP4 PUSH3 0x1062 JUMP JUMPDEST SWAP3 POP PUSH3 0xED2 PUSH32 0xFFFFFFFFFFFFFFFFFFFFFFFFFFFFFFFFFFFFFFFFFFFFFFFFFFFFFFFFFFFFFFFF DUP5 DUP5 PUSH3 0xEDA JUMP JUMPDEST SWAP1 POP SWAP3 SWAP2 POP POP JUMP JUMPDEST PUSH1 0x0 DUP3 PUSH3 0xEEC JUMPI PUSH1 0x1 SWAP1 POP PUSH3 0xFBF JUMP JUMPDEST DUP2 PUSH3 0xEFC JUMPI PUSH1 0x0 SWAP1 POP PUSH3 0xFBF JUMP JUMPDEST DUP2 PUSH1 0x1 DUP2 EQ PUSH3 0xF15 JUMPI PUSH1 0x2 DUP2 EQ PUSH3 0xF20 JUMPI PUSH3 0xF56 JUMP JUMPDEST PUSH1 0x1 SWAP2 POP POP PUSH3 0xFBF JUMP JUMPDEST PUSH1 0xFF DUP5 GT ISZERO PUSH3 0xF35 JUMPI PUSH3 0xF34 PUSH3 0x10AF JUMP JUMPDEST JUMPDEST DUP4 PUSH1 0x2 EXP SWAP2 POP DUP5 DUP3 GT ISZERO PUSH3 0xF4F JUMPI PUSH3 0xF4E PUSH3 0x10AF JUMP JUMPDEST JUMPDEST POP PUSH3 0xFBF JUMP JUMPDEST POP PUSH1 0x20 DUP4 LT PUSH2 0x133 DUP4 LT AND PUSH1 0x4E DUP5 LT PUSH1 0xB DUP5 LT AND OR ISZERO PUSH3 0xF90 JUMPI DUP3 DUP3 EXP SWAP1 POP DUP4 DUP2 GT ISZERO PUSH3 0xF8A JUMPI PUSH3 0xF89 PUSH3 0x10AF JUMP JUMPDEST JUMPDEST PUSH3 0xFBF JUMP JUMPDEST PUSH3 0xF9F DUP5 DUP5 DUP5 PUSH1 0x1 PUSH3 0xE2E JUMP JUMPDEST SWAP3 POP SWAP1 POP DUP2 DUP5 DIV DUP2 GT ISZERO PUSH3 0xFB9 JUMPI PUSH3 0xFB8 PUSH3 0x10AF JUMP JUMPDEST JUMPDEST DUP2 DUP2 MUL SWAP1 POP JUMPDEST SWAP4 SWAP3 POP POP POP JUMP JUMPDEST PUSH1 0x0 PUSH3 0xFD3 DUP3 PUSH3 0x1062 JUMP JUMPDEST SWAP2 POP PUSH3 0xFE0 DUP4 PUSH3 0x1062 JUMP JUMPDEST SWAP3 POP DUP2 PUSH32 0xFFFFFFFFFFFFFFFFFFFFFFFFFFFFFFFFFFFFFFFFFFFFFFFFFFFFFFFFFFFFFFFF DIV DUP4 GT DUP3 ISZERO ISZERO AND ISZERO PUSH3 0x101C JUMPI PUSH3 0x101B PUSH3 0x10AF JUMP JUMPDEST JUMPDEST DUP3 DUP3 MUL SWAP1 POP SWAP3 SWAP2 POP POP JUMP JUMPDEST PUSH1 0x0 PUSH3 0x1034 DUP3 PUSH3 0x106C JUMP JUMPDEST SWAP2 POP PUSH3 0x1041 DUP4 PUSH3 0x106C JUMP JUMPDEST SWAP3 POP DUP3 DUP3 LT ISZERO PUSH3 0x1057 JUMPI PUSH3 0x1056 PUSH3 0x10AF JUMP JUMPDEST JUMPDEST DUP3 DUP3 SUB SWAP1 POP SWAP3 SWAP2 POP POP JUMP JUMPDEST PUSH1 0x0 DUP2 SWAP1 POP SWAP2 SWAP1 POP JUMP JUMPDEST PUSH1 0x0 PUSH1 0xFF DUP3 AND SWAP1 POP SWAP2 SWAP1 POP JUMP JUMPDEST PUSH1 0x0 PUSH1 0x2 DUP3 DIV SWAP1 POP PUSH1 0x1 DUP3 AND DUP1 PUSH3 0x1092 JUMPI PUSH1 0x7F DUP3 AND SWAP2 POP JUMPDEST PUSH1 0x20 DUP3 LT DUP2 EQ ISZERO PUSH3 0x10A9 JUMPI PUSH3 0x10A8 PUSH3 0x10DE JUMP JUMPDEST JUMPDEST POP SWAP2 SWAP1 POP JUMP JUMPDEST PUSH32 0x4E487B7100000000000000000000000000000000000000000000000000000000 PUSH1 0x0 MSTORE PUSH1 0x11 PUSH1 0x4 MSTORE PUSH1 0x24 PUSH1 0x0 REVERT JUMPDEST PUSH32 0x4E487B7100000000000000000000000000000000000000000000000000000000 PUSH1 0x0 MSTORE PUSH1 0x22 PUSH1 0x4 MSTORE PUSH1 0x24 PUSH1 0x0 REVERT JUMPDEST PUSH1 0x0 DUP2 PUSH1 0x1 SHR SWAP1 POP SWAP2 SWAP1 POP JUMP JUMPDEST PUSH2 0x2486 DUP1 PUSH3 0x112A PUSH1 0x0 CODECOPY PUSH1 0x0 RETURN INVALID PUSH1 0x80 PUSH1 0x40 MSTORE PUSH1 0x4 CALLDATASIZE LT PUSH2 0x102 JUMPI PUSH1 0x0 CALLDATALOAD PUSH1 0xE0 SHR DUP1 PUSH4 0x771282F6 GT PUSH2 0x95 JUMPI DUP1 PUSH4 0xA0712D68 GT PUSH2 0x64 JUMPI DUP1 PUSH4 0xA0712D68 EQ PUSH2 0x507 JUMPI DUP1 PUSH4 0xA457C2D7 EQ PUSH2 0x544 JUMPI DUP1 PUSH4 0xA9059CBB EQ PUSH2 0x581 JUMPI DUP1 PUSH4 0xDD62ED3E EQ PUSH2 0x5BE JUMPI DUP1 PUSH4 0xF2FDE38B EQ PUSH2 0x5FB JUMPI PUSH2 0x2CA JUMP JUMPDEST DUP1 PUSH4 0x771282F6 EQ PUSH2 0x45B JUMPI DUP1 PUSH4 0x893D20E8 EQ PUSH2 0x486 JUMPI DUP1 PUSH4 0x8DA5CB5B EQ PUSH2 0x4B1 JUMPI DUP1 PUSH4 0x95D89B41 EQ PUSH2 0x4DC JUMPI PUSH2 0x2CA JUMP JUMPDEST DUP1 PUSH4 0x313CE567 GT PUSH2 0xD1 JUMPI DUP1 PUSH4 0x313CE567 EQ PUSH2 0x39F JUMPI DUP1 PUSH4 0x39509351 EQ PUSH2 0x3CA JUMPI DUP1 PUSH4 0x70A08231 EQ PUSH2 0x407 JUMPI DUP1 PUSH4 0x715018A6 EQ PUSH2 0x444 JUMPI PUSH2 0x2CA JUMP JUMPDEST DUP1 PUSH4 0x6FDDE03 EQ PUSH2 0x2CF JUMPI DUP1 PUSH4 0x95EA7B3 EQ PUSH2 0x2FA JUMPI DUP1 PUSH4 0x18160DDD EQ PUSH2 0x337 JUMPI DUP1 PUSH4 0x23B872DD EQ PUSH2 0x362 JUMPI PUSH2 0x2CA JUMP JUMPDEST CALLDATASIZE PUSH2 0x2CA JUMPI PUSH1 0x0 PUSH2 0x13E CALLVALUE PUSH1 0x2 PUSH1 0x0 PUSH1 0xA PUSH1 0x0 SWAP1 SLOAD SWAP1 PUSH2 0x100 EXP SWAP1 DIV PUSH1 0xFF AND PUSH1 0xFF AND PUSH1 0xFF AND DUP2 MSTORE PUSH1 0x20 ADD SWAP1 DUP2 MSTORE PUSH1 0x20 ADD PUSH1 0x0 KECCAK256 PUSH1 0x0 ADD SLOAD PUSH2 0x624 JUMP JUMPDEST SWAP1 POP PUSH1 0x0 PUSH2 0x157 DUP3 PUSH1 0x4 SLOAD PUSH2 0x65B SWAP1 SWAP2 SWAP1 PUSH4 0xFFFFFFFF AND JUMP JUMPDEST PUSH1 0x2 PUSH1 0x0 PUSH1 0xA PUSH1 0x0 SWAP1 SLOAD SWAP1 PUSH2 0x100 EXP SWAP1 DIV PUSH1 0xFF AND PUSH1 0xFF AND PUSH1 0xFF AND DUP2 MSTORE PUSH1 0x20 ADD SWAP1 DUP2 MSTORE PUSH1 0x20 ADD PUSH1 0x0 KECCAK256 PUSH1 0x1 ADD SLOAD LT ISZERO PUSH2 0x1CE JUMPI PUSH2 0x1C9 PUSH1 0x4 SLOAD PUSH1 0x2 PUSH1 0x0 PUSH1 0xA PUSH1 0x0 SWAP1 SLOAD SWAP1 PUSH2 0x100 EXP SWAP1 DIV PUSH1 0xFF AND PUSH1 0xFF AND PUSH1 0xFF AND DUP2 MSTORE PUSH1 0x20 ADD SWAP1 DUP2 MSTORE PUSH1 0x20 ADD PUSH1 0x0 KECCAK256 PUSH1 0x1 ADD SLOAD PUSH2 0x6B9 SWAP1 SWAP2 SWAP1 PUSH4 0xFFFFFFFF AND JUMP JUMPDEST PUSH2 0x1D0 JUMP JUMPDEST DUP2 JUMPDEST SWAP1 POP PUSH1 0x0 PUSH2 0x23E PUSH2 0x22F PUSH1 0x2 PUSH1 0x0 PUSH1 0xA PUSH1 0x0 SWAP1 SLOAD SWAP1 PUSH2 0x100 EXP SWAP1 DIV PUSH1 0xFF AND PUSH1 0xFF AND PUSH1 0xFF AND DUP2 MSTORE PUSH1 0x20 ADD SWAP1 DUP2 MSTORE PUSH1 0x20 ADD PUSH1 0x0 KECCAK256 PUSH1 0x0 ADD SLOAD PUSH2 0x221 PUSH8 0xDE0B6B3A7640000 DUP7 PUSH2 0x703 SWAP1 SWAP2 SWAP1 PUSH4 0xFFFFFFFF AND JUMP JUMPDEST PUSH2 0x77E SWAP1 SWAP2 SWAP1 PUSH4 0xFFFFFFFF AND JUMP JUMPDEST CALLVALUE PUSH2 0x6B9 SWAP1 SWAP2 SWAP1 PUSH4 0xFFFFFFFF AND JUMP JUMPDEST SWAP1 POP PUSH1 0x0 PUSH2 0x2A0 DUP3 PUSH1 0x2 PUSH1 0x0 PUSH1 0x2 PUSH1 0x0 PUSH1 0xA PUSH1 0x0 SWAP1 SLOAD SWAP1 PUSH2 0x100 EXP SWAP1 DIV PUSH1 0xFF AND PUSH1 0xFF AND PUSH1 0xFF AND DUP2 MSTORE PUSH1 0x20 ADD SWAP1 DUP2 MSTORE PUSH1 0x20 ADD PUSH1 0x0 KECCAK256 PUSH1 0x2 ADD PUSH1 0x0 SWAP1 SLOAD SWAP1 PUSH2 0x100 EXP SWAP1 DIV PUSH1 0xFF AND PUSH1 0xFF AND PUSH1 0xFF AND DUP2 MSTORE PUSH1 0x20 ADD SWAP1 DUP2 MSTORE PUSH1 0x20 ADD PUSH1 0x0 KECCAK256 PUSH1 0x0 ADD SLOAD PUSH2 0x624 JUMP JUMPDEST SWAP1 POP PUSH1 0x0 PUSH2 0x2B7 DUP3 DUP6 PUSH2 0x65B SWAP1 SWAP2 SWAP1 PUSH4 0xFFFFFFFF AND JUMP JUMPDEST SWAP1 POP PUSH2 0x2C3 CALLER DUP3 PUSH2 0x7C8 JUMP JUMPDEST POP POP POP POP POP STOP JUMPDEST PUSH1 0x0 DUP1 REVERT JUMPDEST CALLVALUE DUP1 ISZERO PUSH2 0x2DB JUMPI PUSH1 0x0 DUP1 REVERT JUMPDEST POP PUSH2 0x2E4 PUSH2 0x84F JUMP JUMPDEST PUSH1 0x40 MLOAD PUSH2 0x2F1 SWAP2 SWAP1 PUSH2 0x1CC3 JUMP JUMPDEST PUSH1 0x40 MLOAD DUP1 SWAP2 SUB SWAP1 RETURN JUMPDEST CALLVALUE DUP1 ISZERO PUSH2 0x306 JUMPI PUSH1 0x0 DUP1 REVERT JUMPDEST POP PUSH2 0x321 PUSH1 0x4 DUP1 CALLDATASIZE SUB DUP2 ADD SWAP1 PUSH2 0x31C SWAP2 SWAP1 PUSH2 0x1A4D JUMP JUMPDEST PUSH2 0x8E1 JUMP JUMPDEST PUSH1 0x40 MLOAD PUSH2 0x32E SWAP2 SWAP1 PUSH2 0x1CA8 JUMP JUMPDEST PUSH1 0x40 MLOAD DUP1 SWAP2 SUB SWAP1 RETURN JUMPDEST CALLVALUE DUP1 ISZERO PUSH2 0x343 JUMPI PUSH1 0x0 DUP1 REVERT JUMPDEST POP PUSH2 0x34C PUSH2 0x8FF JUMP JUMPDEST PUSH1 0x40 MLOAD PUSH2 0x359 SWAP2 SWAP1 PUSH2 0x1E25 JUMP JUMPDEST PUSH1 0x40 MLOAD DUP1 SWAP2 SUB SWAP1 RETURN JUMPDEST CALLVALUE DUP1 ISZERO PUSH2 0x36E JUMPI PUSH1 0x0 DUP1 REVERT JUMPDEST POP PUSH2 0x389 PUSH1 0x4 DUP1 CALLDATASIZE SUB DUP2 ADD SWAP1 PUSH2 0x384 SWAP2 SWAP1 PUSH2 0x19FA JUMP JUMPDEST PUSH2 0x909 JUMP JUMPDEST PUSH1 0x40 MLOAD PUSH2 0x396 SWAP2 SWAP1 PUSH2 0x1CA8 JUMP JUMPDEST PUSH1 0x40 MLOAD DUP1 SWAP2 SUB SWAP1 RETURN JUMPDEST CALLVALUE DUP1 ISZERO PUSH2 0x3AB JUMPI PUSH1 0x0 DUP1 REVERT JUMPDEST POP PUSH2 0x3B4 PUSH2 0x9E2 JUMP JUMPDEST PUSH1 0x40 MLOAD PUSH2 0x3C1 SWAP2 SWAP1 PUSH2 0x1E40 JUMP JUMPDEST PUSH1 0x40 MLOAD DUP1 SWAP2 SUB SWAP1 RETURN JUMPDEST CALLVALUE DUP1 ISZERO PUSH2 0x3D6 JUMPI PUSH1 0x0 DUP1 REVERT JUMPDEST POP PUSH2 0x3F1 PUSH1 0x4 DUP1 CALLDATASIZE SUB DUP2 ADD SWAP1 PUSH2 0x3EC SWAP2 SWAP1 PUSH2 0x1A4D JUMP JUMPDEST PUSH2 0x9F9 JUMP JUMPDEST PUSH1 0x40 MLOAD PUSH2 0x3FE SWAP2 SWAP1 PUSH2 0x1CA8 JUMP JUMPDEST PUSH1 0x40 MLOAD DUP1 SWAP2 SUB SWAP1 RETURN JUMPDEST CALLVALUE DUP1 ISZERO PUSH2 0x413 JUMPI PUSH1 0x0 DUP1 REVERT JUMPDEST POP PUSH2 0x42E PUSH1 0x4 DUP1 CALLDATASIZE SUB DUP2 ADD SWAP1 PUSH2 0x429 SWAP2 SWAP1 PUSH2 0x198D JUMP JUMPDEST PUSH2 0xAAC JUMP JUMPDEST PUSH1 0x40 MLOAD PUSH2 0x43B SWAP2 SWAP1 PUSH2 0x1E25 JUMP JUMPDEST PUSH1 0x40 MLOAD DUP1 SWAP2 SUB SWAP1 RETURN JUMPDEST CALLVALUE DUP1 ISZERO PUSH2 0x450 JUMPI PUSH1 0x0 DUP1 REVERT JUMPDEST POP PUSH2 0x459 PUSH2 0xAF5 JUMP JUMPDEST STOP JUMPDEST CALLVALUE DUP1 ISZERO PUSH2 0x467 JUMPI PUSH1 0x0 DUP1 REVERT JUMPDEST POP PUSH2 0x470 PUSH2 0xC48 JUMP JUMPDEST PUSH1 0x40 MLOAD PUSH2 0x47D SWAP2 SWAP1 PUSH2 0x1E25 JUMP JUMPDEST PUSH1 0x40 MLOAD DUP1 SWAP2 SUB SWAP1 RETURN JUMPDEST CALLVALUE DUP1 ISZERO PUSH2 0x492 JUMPI PUSH1 0x0 DUP1 REVERT JUMPDEST POP PUSH2 0x49B PUSH2 0xC52 JUMP JUMPDEST PUSH1 0x40 MLOAD PUSH2 0x4A8 SWAP2 SWAP1 PUSH2 0x1C8D JUMP JUMPDEST PUSH1 0x40 MLOAD DUP1 SWAP2 SUB SWAP1 RETURN JUMPDEST CALLVALUE DUP1 ISZERO PUSH2 0x4BD JUMPI PUSH1 0x0 DUP1 REVERT JUMPDEST POP PUSH2 0x4C6 PUSH2 0xC61 JUMP JUMPDEST PUSH1 0x40 MLOAD PUSH2 0x4D3 SWAP2 SWAP1 PUSH2 0x1C8D JUMP JUMPDEST PUSH1 0x40 MLOAD DUP1 SWAP2 SUB SWAP1 RETURN JUMPDEST CALLVALUE DUP1 ISZERO PUSH2 0x4E8 JUMPI PUSH1 0x0 DUP1 REVERT JUMPDEST POP PUSH2 0x4F1 PUSH2 0xC8A JUMP JUMPDEST PUSH1 0x40 MLOAD PUSH2 0x4FE SWAP2 SWAP1 PUSH2 0x1CC3 JUMP JUMPDEST PUSH1 0x40 MLOAD DUP1 SWAP2 SUB SWAP1 RETURN JUMPDEST CALLVALUE DUP1 ISZERO PUSH2 0x513 JUMPI PUSH1 0x0 DUP1 REVERT JUMPDEST POP PUSH2 0x52E PUSH1 0x4 DUP1 CALLDATASIZE SUB DUP2 ADD SWAP1 PUSH2 0x529 SWAP2 SWAP1 PUSH2 0x1A8D JUMP JUMPDEST PUSH2 0xD1C JUMP JUMPDEST PUSH1 0x40 MLOAD PUSH2 0x53B SWAP2 SWAP1 PUSH2 0x1CA8 JUMP JUMPDEST PUSH1 0x40 MLOAD DUP1 SWAP2 SUB SWAP1 RETURN JUMPDEST CALLVALUE DUP1 ISZERO PUSH2 0x550 JUMPI PUSH1 0x0 DUP1 REVERT JUMPDEST POP PUSH2 0x56B PUSH1 0x4 DUP1 CALLDATASIZE SUB DUP2 ADD SWAP1 PUSH2 0x566 SWAP2 SWAP1 PUSH2 0x1A4D JUMP JUMPDEST PUSH2 0xDCD JUMP JUMPDEST PUSH1 0x40 MLOAD PUSH2 0x578 SWAP2 SWAP1 PUSH2 0x1CA8 JUMP JUMPDEST PUSH1 0x40 MLOAD DUP1 SWAP2 SUB SWAP1 RETURN JUMPDEST CALLVALUE DUP1 ISZERO PUSH2 0x58D JUMPI PUSH1 0x0 DUP1 REVERT JUMPDEST POP PUSH2 0x5A8 PUSH1 0x4 DUP1 CALLDATASIZE SUB DUP2 ADD SWAP1 PUSH2 0x5A3 SWAP2 SWAP1 PUSH2 0x1A4D JUMP JUMPDEST PUSH2 0xE9A JUMP JUMPDEST PUSH1 0x40 MLOAD PUSH2 0x5B5 SWAP2 SWAP1 PUSH2 0x1CA8 JUMP JUMPDEST PUSH1 0x40 MLOAD DUP1 SWAP2 SUB SWAP1 RETURN JUMPDEST CALLVALUE DUP1 ISZERO PUSH2 0x5CA JUMPI PUSH1 0x0 DUP1 REVERT JUMPDEST POP PUSH2 0x5E5 PUSH1 0x4 DUP1 CALLDATASIZE SUB DUP2 ADD SWAP1 PUSH2 0x5E0 SWAP2 SWAP1 PUSH2 0x19BA JUMP JUMPDEST PUSH2 0xEB8 JUMP JUMPDEST PUSH1 0x40 MLOAD PUSH2 0x5F2 SWAP2 SWAP1 PUSH2 0x1E25 JUMP JUMPDEST PUSH1 0x40 MLOAD DUP1 SWAP2 SUB SWAP1 RETURN JUMPDEST CALLVALUE DUP1 ISZERO PUSH2 0x607 JUMPI PUSH1 0x0 DUP1 REVERT JUMPDEST POP PUSH2 0x622 PUSH1 0x4 DUP1 CALLDATASIZE SUB DUP2 ADD SWAP1 PUSH2 0x61D SWAP2 SWAP1 PUSH2 0x198D JUMP JUMPDEST PUSH2 0xF3F JUMP JUMPDEST STOP JUMPDEST PUSH1 0x0 PUSH2 0x653 PUSH8 0xDE0B6B3A7640000 PUSH2 0x645 DUP5 DUP7 PUSH2 0x703 SWAP1 SWAP2 SWAP1 PUSH4 0xFFFFFFFF AND JUMP JUMPDEST PUSH2 0x77E SWAP1 SWAP2 SWAP1 PUSH4 0xFFFFFFFF AND JUMP JUMPDEST SWAP1 POP SWAP3 SWAP2 POP POP JUMP JUMPDEST PUSH1 0x0 DUP1 DUP3 DUP5 PUSH2 0x66A SWAP2 SWAP1 PUSH2 0x1E77 JUMP JUMPDEST SWAP1 POP DUP4 DUP2 LT ISZERO PUSH2 0x6AF JUMPI PUSH1 0x40 MLOAD PUSH32 0x8C379A000000000000000000000000000000000000000000000000000000000 DUP2 MSTORE PUSH1 0x4 ADD PUSH2 0x6A6 SWAP1 PUSH2 0x1D45 JUMP JUMPDEST PUSH1 0x40 MLOAD DUP1 SWAP2 SUB SWAP1 REVERT JUMPDEST DUP1 SWAP2 POP POP SWAP3 SWAP2 POP POP JUMP JUMPDEST PUSH1 0x0 PUSH2 0x6FB DUP4 DUP4 PUSH1 0x40 MLOAD DUP1 PUSH1 0x40 ADD PUSH1 0x40 MSTORE DUP1 PUSH1 0x1E DUP2 MSTORE PUSH1 0x20 ADD PUSH32 0x536166654D6174683A207375627472616374696F6E206F766572666C6F770000 DUP2 MSTORE POP PUSH2 0xFE0 JUMP JUMPDEST SWAP1 POP SWAP3 SWAP2 POP POP JUMP JUMPDEST PUSH1 0x0 DUP1 DUP4 EQ ISZERO PUSH2 0x716 JUMPI PUSH1 0x0 SWAP1 POP PUSH2 0x778 JUMP JUMPDEST PUSH1 0x0 DUP3 DUP5 PUSH2 0x724 SWAP2 SWAP1 PUSH2 0x1EFE JUMP JUMPDEST SWAP1 POP DUP3 DUP5 DUP3 PUSH2 0x733 SWAP2 SWAP1 PUSH2 0x1ECD JUMP JUMPDEST EQ PUSH2 0x773 JUMPI PUSH1 0x40 MLOAD PUSH32 0x8C379A000000000000000000000000000000000000000000000000000000000 DUP2 MSTORE PUSH1 0x4 ADD PUSH2 0x76A SWAP1 PUSH2 0x1D65 JUMP JUMPDEST PUSH1 0x40 MLOAD DUP1 SWAP2 SUB SWAP1 REVERT JUMPDEST DUP1 SWAP2 POP POP JUMPDEST SWAP3 SWAP2 POP POP JUMP JUMPDEST PUSH1 0x0 PUSH2 0x7C0 DUP4 DUP4 PUSH1 0x40 MLOAD DUP1 PUSH1 0x40 ADD PUSH1 0x40 MSTORE DUP1 PUSH1 0x1A DUP2 MSTORE PUSH1 0x20 ADD PUSH32 0x536166654D6174683A206469766973696F6E206279207A65726F000000000000 DUP2 MSTORE POP PUSH2 0x1044 JUMP JUMPDEST SWAP1 POP SWAP3 SWAP2 POP POP JUMP JUMPDEST PUSH1 0x0 PUSH2 0x7DE PUSH1 0x14 DUP4 PUSH2 0x77E SWAP1 SWAP2 SWAP1 PUSH4 0xFFFFFFFF AND JUMP JUMPDEST SWAP1 POP PUSH2 0x810 DUP4 PUSH2 0x80B PUSH1 0x14 PUSH2 0x7FD PUSH1 0x13 DUP8 PUSH2 0x703 SWAP1 SWAP2 SWAP1 PUSH4 0xFFFFFFFF AND JUMP JUMPDEST PUSH2 0x77E SWAP1 SWAP2 SWAP1 PUSH4 0xFFFFFFFF AND JUMP JUMPDEST PUSH2 0x10A7 JUMP JUMPDEST PUSH2 0x82D ADDRESS PUSH2 0x828 PUSH1 0x5 DUP5 PUSH2 0x77E SWAP1 SWAP2 SWAP1 PUSH4 0xFFFFFFFF AND JUMP JUMPDEST PUSH2 0x10A7 JUMP JUMPDEST PUSH2 0x84A ADDRESS PUSH2 0x845 PUSH1 0x5 DUP5 PUSH2 0x77E SWAP1 SWAP2 SWAP1 PUSH4 0xFFFFFFFF AND JUMP JUMPDEST PUSH2 0x1231 JUMP JUMPDEST POP POP POP JUMP JUMPDEST PUSH1 0x60 PUSH1 0x7 DUP1 SLOAD PUSH2 0x85E SWAP1 PUSH2 0x2014 JUMP JUMPDEST DUP1 PUSH1 0x1F ADD PUSH1 0x20 DUP1 SWAP2 DIV MUL PUSH1 0x20 ADD PUSH1 0x40 MLOAD SWAP1 DUP2 ADD PUSH1 0x40 MSTORE DUP1 SWAP3 SWAP2 SWAP1 DUP2 DUP2 MSTORE PUSH1 0x20 ADD DUP3 DUP1 SLOAD PUSH2 0x88A SWAP1 PUSH2 0x2014 JUMP JUMPDEST DUP1 ISZERO PUSH2 0x8D7 JUMPI DUP1 PUSH1 0x1F LT PUSH2 0x8AC JUMPI PUSH2 0x100 DUP1 DUP4 SLOAD DIV MUL DUP4 MSTORE SWAP2 PUSH1 0x20 ADD SWAP2 PUSH2 0x8D7 JUMP JUMPDEST DUP3 ADD SWAP2 SWAP1 PUSH1 0x0 MSTORE PUSH1 0x20 PUSH1 0x0 KECCAK256 SWAP1 JUMPDEST DUP2 SLOAD DUP2 MSTORE SWAP1 PUSH1 0x1 ADD SWAP1 PUSH1 0x20 ADD DUP1 DUP4 GT PUSH2 0x8BA JUMPI DUP3 SWAP1 SUB PUSH1 0x1F AND DUP3 ADD SWAP2 JUMPDEST POP POP POP POP POP SWAP1 POP SWAP1 JUMP JUMPDEST PUSH1 0x0 PUSH2 0x8F5 PUSH2 0x8EE PUSH2 0x13D5 JUMP JUMPDEST DUP5 DUP5 PUSH2 0x13DD JUMP JUMPDEST PUSH1 0x1 SWAP1 POP SWAP3 SWAP2 POP POP JUMP JUMPDEST PUSH1 0x0 PUSH1 0x4 SLOAD SWAP1 POP SWAP1 JUMP JUMPDEST PUSH1 0x0 PUSH2 0x916 DUP5 DUP5 DUP5 PUSH2 0x15A8 JUMP JUMPDEST PUSH2 0x9D7 DUP5 PUSH2 0x922 PUSH2 0x13D5 JUMP JUMPDEST PUSH2 0x9D2 DUP6 PUSH1 0x40 MLOAD DUP1 PUSH1 0x60 ADD PUSH1 0x40 MSTORE DUP1 PUSH1 0x28 DUP2 MSTORE PUSH1 0x20 ADD PUSH2 0x23BC PUSH1 0x28 SWAP2 CODECOPY PUSH1 0x3 PUSH1 0x0 DUP12 PUSH20 0xFFFFFFFFFFFFFFFFFFFFFFFFFFFFFFFFFFFFFFFF AND PUSH20 0xFFFFFFFFFFFFFFFFFFFFFFFFFFFFFFFFFFFFFFFF AND DUP2 MSTORE PUSH1 0x20 ADD SWAP1 DUP2 MSTORE PUSH1 0x20 ADD PUSH1 0x0 KECCAK256 PUSH1 0x0 PUSH2 0x988 PUSH2 0x13D5 JUMP JUMPDEST PUSH20 0xFFFFFFFFFFFFFFFFFFFFFFFFFFFFFFFFFFFFFFFF AND PUSH20 0xFFFFFFFFFFFFFFFFFFFFFFFFFFFFFFFFFFFFFFFF AND DUP2 MSTORE PUSH1 0x20 ADD SWAP1 DUP2 MSTORE PUSH1 0x20 ADD PUSH1 0x0 KECCAK256 SLOAD PUSH2 0xFE0 SWAP1 SWAP3 SWAP2 SWAP1 PUSH4 0xFFFFFFFF AND JUMP JUMPDEST PUSH2 0x13DD JUMP JUMPDEST PUSH1 0x1 SWAP1 POP SWAP4 SWAP3 POP POP POP JUMP JUMPDEST PUSH1 0x0 PUSH1 0x5 PUSH1 0x0 SWAP1 SLOAD SWAP1 PUSH2 0x100 EXP SWAP1 DIV PUSH1 0xFF AND SWAP1 POP SWAP1 JUMP JUMPDEST PUSH1 0x0 PUSH2 0xAA2 PUSH2 0xA06 PUSH2 0x13D5 JUMP JUMPDEST DUP5 PUSH2 0xA9D DUP6 PUSH1 0x3 PUSH1 0x0 PUSH2 0xA17 PUSH2 0x13D5 JUMP JUMPDEST PUSH20 0xFFFFFFFFFFFFFFFFFFFFFFFFFFFFFFFFFFFFFFFF AND PUSH20 0xFFFFFFFFFFFFFFFFFFFFFFFFFFFFFFFFFFFFFFFF AND DUP2 MSTORE PUSH1 0x20 ADD SWAP1 DUP2 MSTORE PUSH1 0x20 ADD PUSH1 0x0 KECCAK256 PUSH1 0x0 DUP10 PUSH20 0xFFFFFFFFFFFFFFFFFFFFFFFFFFFFFFFFFFFFFFFF AND PUSH20 0xFFFFFFFFFFFFFFFFFFFFFFFFFFFFFFFFFFFFFFFF AND DUP2 MSTORE PUSH1 0x20 ADD SWAP1 DUP2 MSTORE PUSH1 0x20 ADD PUSH1 0x0 KECCAK256 SLOAD PUSH2 0x65B SWAP1 SWAP2 SWAP1 PUSH4 0xFFFFFFFF AND JUMP JUMPDEST PUSH2 0x13DD JUMP JUMPDEST PUSH1 0x1 SWAP1 POP SWAP3 SWAP2 POP POP JUMP JUMPDEST PUSH1 0x0 PUSH1 0x1 PUSH1 0x0 DUP4 PUSH20 0xFFFFFFFFFFFFFFFFFFFFFFFFFFFFFFFFFFFFFFFF AND PUSH20 0xFFFFFFFFFFFFFFFFFFFFFFFFFFFFFFFFFFFFFFFF AND DUP2 MSTORE PUSH1 0x20 ADD SWAP1 DUP2 MSTORE PUSH1 0x20 ADD PUSH1 0x0 KECCAK256 SLOAD SWAP1 POP SWAP2 SWAP1 POP JUMP JUMPDEST PUSH2 0xAFD PUSH2 0x13D5 JUMP JUMPDEST PUSH20 0xFFFFFFFFFFFFFFFFFFFFFFFFFFFFFFFFFFFFFFFF AND PUSH1 0x0 DUP1 SLOAD SWAP1 PUSH2 0x100 EXP SWAP1 DIV PUSH20 0xFFFFFFFFFFFFFFFFFFFFFFFFFFFFFFFFFFFFFFFF AND PUSH20 0xFFFFFFFFFFFFFFFFFFFFFFFFFFFFFFFFFFFFFFFF AND EQ PUSH2 0xB8A JUMPI PUSH1 0x40 MLOAD PUSH32 0x8C379A000000000000000000000000000000000000000000000000000000000 DUP2 MSTORE PUSH1 0x4 ADD PUSH2 0xB81 SWAP1 PUSH2 0x1DA5 JUMP JUMPDEST PUSH1 0x40 MLOAD DUP1 SWAP2 SUB SWAP1 REVERT JUMPDEST PUSH1 0x0 PUSH20 0xFFFFFFFFFFFFFFFFFFFFFFFFFFFFFFFFFFFFFFFF AND PUSH1 0x0 DUP1 SLOAD SWAP1 PUSH2 0x100 EXP SWAP1 DIV PUSH20 0xFFFFFFFFFFFFFFFFFFFFFFFFFFFFFFFFFFFFFFFF AND PUSH20 0xFFFFFFFFFFFFFFFFFFFFFFFFFFFFFFFFFFFFFFFF AND PUSH32 0x8BE0079C531659141344CD1FD0A4F28419497F9722A3DAAFE3B4186F6B6457E0 PUSH1 0x40 MLOAD PUSH1 0x40 MLOAD DUP1 SWAP2 SUB SWAP1 LOG3 PUSH1 0x0 DUP1 PUSH1 0x0 PUSH2 0x100 EXP DUP2 SLOAD DUP2 PUSH20 0xFFFFFFFFFFFFFFFFFFFFFFFFFFFFFFFFFFFFFFFF MUL NOT AND SWAP1 DUP4 PUSH20 0xFFFFFFFFFFFFFFFFFFFFFFFFFFFFFFFFFFFFFFFF AND MUL OR SWAP1 SSTORE POP JUMP JUMPDEST PUSH1 0x0 PUSH1 0x8 SLOAD SWAP1 POP SWAP1 JUMP JUMPDEST PUSH1 0x0 PUSH2 0xC5C PUSH2 0xC61 JUMP JUMPDEST SWAP1 POP SWAP1 JUMP JUMPDEST PUSH1 0x0 DUP1 PUSH1 0x0 SWAP1 SLOAD SWAP1 PUSH2 0x100 EXP SWAP1 DIV PUSH20 0xFFFFFFFFFFFFFFFFFFFFFFFFFFFFFFFFFFFFFFFF AND SWAP1 POP SWAP1 JUMP JUMPDEST PUSH1 0x60 PUSH1 0x6 DUP1 SLOAD PUSH2 0xC99 SWAP1 PUSH2 0x2014 JUMP JUMPDEST DUP1 PUSH1 0x1F ADD PUSH1 0x20 DUP1 SWAP2 DIV MUL PUSH1 0x20 ADD PUSH1 0x40 MLOAD SWAP1 DUP2 ADD PUSH1 0x40 MSTORE DUP1 SWAP3 SWAP2 SWAP1 DUP2 DUP2 MSTORE PUSH1 0x20 ADD DUP3 DUP1 SLOAD PUSH2 0xCC5 SWAP1 PUSH2 0x2014 JUMP JUMPDEST DUP1 ISZERO PUSH2 0xD12 JUMPI DUP1 PUSH1 0x1F LT PUSH2 0xCE7 JUMPI PUSH2 0x100 DUP1 DUP4 SLOAD DIV MUL DUP4 MSTORE SWAP2 PUSH1 0x20 ADD SWAP2 PUSH2 0xD12 JUMP JUMPDEST DUP3 ADD SWAP2 SWAP1 PUSH1 0x0 MSTORE PUSH1 0x20 PUSH1 0x0 KECCAK256 SWAP1 JUMPDEST DUP2 SLOAD DUP2 MSTORE SWAP1 PUSH1 0x1 ADD SWAP1 PUSH1 0x20 ADD DUP1 DUP4 GT PUSH2 0xCF5 JUMPI DUP3 SWAP1 SUB PUSH1 0x1F AND DUP3 ADD SWAP2 JUMPDEST POP POP POP POP POP SWAP1 POP SWAP1 JUMP JUMPDEST PUSH1 0x0 PUSH2 0xD26 PUSH2 0x13D5 JUMP JUMPDEST PUSH20 0xFFFFFFFFFFFFFFFFFFFFFFFFFFFFFFFFFFFFFFFF AND PUSH1 0x0 DUP1 SLOAD SWAP1 PUSH2 0x100 EXP SWAP1 DIV PUSH20 0xFFFFFFFFFFFFFFFFFFFFFFFFFFFFFFFFFFFFFFFF AND PUSH20 0xFFFFFFFFFFFFFFFFFFFFFFFFFFFFFFFFFFFFFFFF AND EQ PUSH2 0xDB3 JUMPI PUSH1 0x40 MLOAD PUSH32 0x8C379A000000000000000000000000000000000000000000000000000000000 DUP2 MSTORE PUSH1 0x4 ADD PUSH2 0xDAA SWAP1 PUSH2 0x1DA5 JUMP JUMPDEST PUSH1 0x40 MLOAD DUP1 SWAP2 SUB SWAP1 REVERT JUMPDEST PUSH2 0xDC4 PUSH2 0xDBE PUSH2 0x13D5 JUMP JUMPDEST DUP4 PUSH2 0x10A7 JUMP JUMPDEST PUSH1 0x1 SWAP1 POP SWAP2 SWAP1 POP JUMP JUMPDEST PUSH1 0x0 PUSH2 0xE90 PUSH2 0xDDA PUSH2 0x13D5 JUMP JUMPDEST DUP5 PUSH2 0xE8B DUP6 PUSH1 0x40 MLOAD DUP1 PUSH1 0x60 ADD PUSH1 0x40 MSTORE DUP1 PUSH1 0x25 DUP2 MSTORE PUSH1 0x20 ADD PUSH2 0x240A PUSH1 0x25 SWAP2 CODECOPY PUSH1 0x3 PUSH1 0x0 PUSH2 0xE04 PUSH2 0x13D5 JUMP JUMPDEST PUSH20 0xFFFFFFFFFFFFFFFFFFFFFFFFFFFFFFFFFFFFFFFF AND PUSH20 0xFFFFFFFFFFFFFFFFFFFFFFFFFFFFFFFFFFFFFFFF AND DUP2 MSTORE PUSH1 0x20 ADD SWAP1 DUP2 MSTORE PUSH1 0x20 ADD PUSH1 0x0 KECCAK256 PUSH1 0x0 DUP11 PUSH20 0xFFFFFFFFFFFFFFFFFFFFFFFFFFFFFFFFFFFFFFFF AND PUSH20 0xFFFFFFFFFFFFFFFFFFFFFFFFFFFFFFFFFFFFFFFF AND DUP2 MSTORE PUSH1 0x20 ADD SWAP1 DUP2 MSTORE PUSH1 0x20 ADD PUSH1 0x0 KECCAK256 SLOAD PUSH2 0xFE0 SWAP1 SWAP3 SWAP2 SWAP1 PUSH4 0xFFFFFFFF AND JUMP JUMPDEST PUSH2 0x13DD JUMP JUMPDEST PUSH1 0x1 SWAP1 POP SWAP3 SWAP2 POP POP JUMP JUMPDEST PUSH1 0x0 PUSH2 0xEAE PUSH2 0xEA7 PUSH2 0x13D5 JUMP JUMPDEST DUP5 DUP5 PUSH2 0x15A8 JUMP JUMPDEST PUSH1 0x1 SWAP1 POP SWAP3 SWAP2 POP POP JUMP JUMPDEST PUSH1 0x0 PUSH1 0x3 PUSH1 0x0 DUP5 PUSH20 0xFFFFFFFFFFFFFFFFFFFFFFFFFFFFFFFFFFFFFFFF AND PUSH20 0xFFFFFFFFFFFFFFFFFFFFFFFFFFFFFFFFFFFFFFFF AND DUP2 MSTORE PUSH1 0x20 ADD SWAP1 DUP2 MSTORE PUSH1 0x20 ADD PUSH1 0x0 KECCAK256 PUSH1 0x0 DUP4 PUSH20 0xFFFFFFFFFFFFFFFFFFFFFFFFFFFFFFFFFFFFFFFF AND PUSH20 0xFFFFFFFFFFFFFFFFFFFFFFFFFFFFFFFFFFFFFFFF AND DUP2 MSTORE PUSH1 0x20 ADD SWAP1 DUP2 MSTORE PUSH1 0x20 ADD PUSH1 0x0 KECCAK256 SLOAD SWAP1 POP SWAP3 SWAP2 POP POP JUMP JUMPDEST PUSH2 0xF47 PUSH2 0x13D5 JUMP JUMPDEST PUSH20 0xFFFFFFFFFFFFFFFFFFFFFFFFFFFFFFFFFFFFFFFF AND PUSH1 0x0 DUP1 SLOAD SWAP1 PUSH2 0x100 EXP SWAP1 DIV PUSH20 0xFFFFFFFFFFFFFFFFFFFFFFFFFFFFFFFFFFFFFFFF AND PUSH20 0xFFFFFFFFFFFFFFFFFFFFFFFFFFFFFFFFFFFFFFFF AND EQ PUSH2 0xFD4 JUMPI PUSH1 0x40 MLOAD PUSH32 0x8C379A000000000000000000000000000000000000000000000000000000000 DUP2 MSTORE PUSH1 0x4 ADD PUSH2 0xFCB SWAP1 PUSH2 0x1DA5 JUMP JUMPDEST PUSH1 0x40 MLOAD DUP1 SWAP2 SUB SWAP1 REVERT JUMPDEST PUSH2 0xFDD DUP2 PUSH2 0x1836 JUMP JUMPDEST POP JUMP JUMPDEST PUSH1 0x0 DUP4 DUP4 GT ISZERO DUP3 SWAP1 PUSH2 0x1028 JUMPI PUSH1 0x40 MLOAD PUSH32 0x8C379A000000000000000000000000000000000000000000000000000000000 DUP2 MSTORE PUSH1 0x4 ADD PUSH2 0x101F SWAP2 SWAP1 PUSH2 0x1CC3 JUMP JUMPDEST PUSH1 0x40 MLOAD DUP1 SWAP2 SUB SWAP1 REVERT JUMPDEST POP PUSH1 0x0 DUP4 DUP6 PUSH2 0x1037 SWAP2 SWAP1 PUSH2 0x1F58 JUMP JUMPDEST SWAP1 POP DUP1 SWAP2 POP POP SWAP4 SWAP3 POP POP POP JUMP JUMPDEST PUSH1 0x0 DUP1 DUP4 GT DUP3 SWAP1 PUSH2 0x108B JUMPI PUSH1 0x40 MLOAD PUSH32 0x8C379A000000000000000000000000000000000000000000000000000000000 DUP2 MSTORE PUSH1 0x4 ADD PUSH2 0x1082 SWAP2 SWAP1 PUSH2 0x1CC3 JUMP JUMPDEST PUSH1 0x40 MLOAD DUP1 SWAP2 SUB SWAP1 REVERT JUMPDEST POP PUSH1 0x0 DUP4 DUP6 PUSH2 0x109A SWAP2 SWAP1 PUSH2 0x1ECD JUMP JUMPDEST SWAP1 POP DUP1 SWAP2 POP POP SWAP4 SWAP3 POP POP POP JUMP JUMPDEST PUSH1 0x0 PUSH20 0xFFFFFFFFFFFFFFFFFFFFFFFFFFFFFFFFFFFFFFFF AND DUP3 PUSH20 0xFFFFFFFFFFFFFFFFFFFFFFFFFFFFFFFFFFFFFFFF AND EQ ISZERO PUSH2 0x1117 JUMPI PUSH1 0x40 MLOAD PUSH32 0x8C379A000000000000000000000000000000000000000000000000000000000 DUP2 MSTORE PUSH1 0x4 ADD PUSH2 0x110E SWAP1 PUSH2 0x1D85 JUMP JUMPDEST PUSH1 0x40 MLOAD DUP1 SWAP2 SUB SWAP1 REVERT JUMPDEST PUSH2 0x112C DUP2 PUSH1 0x4 SLOAD PUSH2 0x65B SWAP1 SWAP2 SWAP1 PUSH4 0xFFFFFFFF AND JUMP JUMPDEST PUSH1 0x4 DUP2 SWAP1 SSTORE POP PUSH2 0x1184 DUP2 PUSH1 0x1 PUSH1 0x0 DUP6 PUSH20 0xFFFFFFFFFFFFFFFFFFFFFFFFFFFFFFFFFFFFFFFF AND PUSH20 0xFFFFFFFFFFFFFFFFFFFFFFFFFFFFFFFFFFFFFFFF AND DUP2 MSTORE PUSH1 0x20 ADD SWAP1 DUP2 MSTORE PUSH1 0x20 ADD PUSH1 0x0 KECCAK256 SLOAD PUSH2 0x65B SWAP1 SWAP2 SWAP1 PUSH4 0xFFFFFFFF AND JUMP JUMPDEST PUSH1 0x1 PUSH1 0x0 DUP5 PUSH20 0xFFFFFFFFFFFFFFFFFFFFFFFFFFFFFFFFFFFFFFFF AND PUSH20 0xFFFFFFFFFFFFFFFFFFFFFFFFFFFFFFFFFFFFFFFF AND DUP2 MSTORE PUSH1 0x20 ADD SWAP1 DUP2 MSTORE PUSH1 0x20 ADD PUSH1 0x0 KECCAK256 DUP2 SWAP1 SSTORE POP DUP2 PUSH20 0xFFFFFFFFFFFFFFFFFFFFFFFFFFFFFFFFFFFFFFFF AND PUSH1 0x0 PUSH20 0xFFFFFFFFFFFFFFFFFFFFFFFFFFFFFFFFFFFFFFFF AND PUSH32 0xDDF252AD1BE2C89B69C2B068FC378DAA952BA7F163C4A11628F55A4DF523B3EF DUP4 PUSH1 0x40 MLOAD PUSH2 0x1225 SWAP2 SWAP1 PUSH2 0x1E25 JUMP JUMPDEST PUSH1 0x40 MLOAD DUP1 SWAP2 SUB SWAP1 LOG3 POP POP JUMP JUMPDEST PUSH1 0x0 PUSH20 0xFFFFFFFFFFFFFFFFFFFFFFFFFFFFFFFFFFFFFFFF AND DUP3 PUSH20 0xFFFFFFFFFFFFFFFFFFFFFFFFFFFFFFFFFFFFFFFF AND EQ ISZERO PUSH2 0x12A1 JUMPI PUSH1 0x40 MLOAD PUSH32 0x8C379A000000000000000000000000000000000000000000000000000000000 DUP2 MSTORE PUSH1 0x4 ADD PUSH2 0x1298 SWAP1 PUSH2 0x1DE5 JUMP JUMPDEST PUSH1 0x40 MLOAD DUP1 SWAP2 SUB SWAP1 REVERT JUMPDEST PUSH2 0x130D DUP2 PUSH1 0x40 MLOAD DUP1 PUSH1 0x60 ADD PUSH1 0x40 MSTORE DUP1 PUSH1 0x22 DUP2 MSTORE PUSH1 0x20 ADD PUSH2 0x242F PUSH1 0x22 SWAP2 CODECOPY PUSH1 0x1 PUSH1 0x0 DUP7 PUSH20 0xFFFFFFFFFFFFFFFFFFFFFFFFFFFFFFFFFFFFFFFF AND PUSH20 0xFFFFFFFFFFFFFFFFFFFFFFFFFFFFFFFFFFFFFFFF AND DUP2 MSTORE PUSH1 0x20 ADD SWAP1 DUP2 MSTORE PUSH1 0x20 ADD PUSH1 0x0 KECCAK256 SLOAD PUSH2 0xFE0 SWAP1 SWAP3 SWAP2 SWAP1 PUSH4 0xFFFFFFFF AND JUMP JUMPDEST PUSH1 0x1 PUSH1 0x0 DUP5 PUSH20 0xFFFFFFFFFFFFFFFFFFFFFFFFFFFFFFFFFFFFFFFF AND PUSH20 0xFFFFFFFFFFFFFFFFFFFFFFFFFFFFFFFFFFFFFFFF AND DUP2 MSTORE PUSH1 0x20 ADD SWAP1 DUP2 MSTORE PUSH1 0x20 ADD PUSH1 0x0 KECCAK256 DUP2 SWAP1 SSTORE POP PUSH2 0x1365 DUP2 PUSH1 0x4 SLOAD PUSH2 0x6B9 SWAP1 SWAP2 SWAP1 PUSH4 0xFFFFFFFF AND JUMP JUMPDEST PUSH1 0x4 DUP2 SWAP1 SSTORE POP PUSH1 0x0 PUSH20 0xFFFFFFFFFFFFFFFFFFFFFFFFFFFFFFFFFFFFFFFF AND DUP3 PUSH20 0xFFFFFFFFFFFFFFFFFFFFFFFFFFFFFFFFFFFFFFFF AND PUSH32 0xDDF252AD1BE2C89B69C2B068FC378DAA952BA7F163C4A11628F55A4DF523B3EF DUP4 PUSH1 0x40 MLOAD PUSH2 0x13C9 SWAP2 SWAP1 PUSH2 0x1E25 JUMP JUMPDEST PUSH1 0x40 MLOAD DUP1 SWAP2 SUB SWAP1 LOG3 POP POP JUMP JUMPDEST PUSH1 0x0 CALLER SWAP1 POP SWAP1 JUMP JUMPDEST PUSH1 0x0 PUSH20 0xFFFFFFFFFFFFFFFFFFFFFFFFFFFFFFFFFFFFFFFF AND DUP4 PUSH20 0xFFFFFFFFFFFFFFFFFFFFFFFFFFFFFFFFFFFFFFFF AND EQ ISZERO PUSH2 0x144D JUMPI PUSH1 0x40 MLOAD PUSH32 0x8C379A000000000000000000000000000000000000000000000000000000000 DUP2 MSTORE PUSH1 0x4 ADD PUSH2 0x1444 SWAP1 PUSH2 0x1D05 JUMP JUMPDEST PUSH1 0x40 MLOAD DUP1 SWAP2 SUB SWAP1 REVERT JUMPDEST PUSH1 0x0 PUSH20 0xFFFFFFFFFFFFFFFFFFFFFFFFFFFFFFFFFFFFFFFF AND DUP3 PUSH20 0xFFFFFFFFFFFFFFFFFFFFFFFFFFFFFFFFFFFFFFFF AND EQ ISZERO PUSH2 0x14BD JUMPI PUSH1 0x40 MLOAD PUSH32 0x8C379A000000000000000000000000000000000000000000000000000000000 DUP2 MSTORE PUSH1 0x4 ADD PUSH2 0x14B4 SWAP1 PUSH2 0x1E05 JUMP JUMPDEST PUSH1 0x40 MLOAD DUP1 SWAP2 SUB SWAP1 REVERT JUMPDEST DUP1 PUSH1 0x3 PUSH1 0x0 DUP6 PUSH20 0xFFFFFFFFFFFFFFFFFFFFFFFFFFFFFFFFFFFFFFFF AND PUSH20 0xFFFFFFFFFFFFFFFFFFFFFFFFFFFFFFFFFFFFFFFF AND DUP2 MSTORE PUSH1 0x20 ADD SWAP1 DUP2 MSTORE PUSH1 0x20 ADD PUSH1 0x0 KECCAK256 PUSH1 0x0 DUP5 PUSH20 0xFFFFFFFFFFFFFFFFFFFFFFFFFFFFFFFFFFFFFFFF AND PUSH20 0xFFFFFFFFFFFFFFFFFFFFFFFFFFFFFFFFFFFFFFFF AND DUP2 MSTORE PUSH1 0x20 ADD SWAP1 DUP2 MSTORE PUSH1 0x20 ADD PUSH1 0x0 KECCAK256 DUP2 SWAP1 SSTORE POP DUP2 PUSH20 0xFFFFFFFFFFFFFFFFFFFFFFFFFFFFFFFFFFFFFFFF AND DUP4 PUSH20 0xFFFFFFFFFFFFFFFFFFFFFFFFFFFFFFFFFFFFFFFF AND PUSH32 0x8C5BE1E5EBEC7D5BD14F71427D1E84F3DD0314C0F7B2291E5B200AC8C7C3B925 DUP4 PUSH1 0x40 MLOAD PUSH2 0x159B SWAP2 SWAP1 PUSH2 0x1E25 JUMP JUMPDEST PUSH1 0x40 MLOAD DUP1 SWAP2 SUB SWAP1 LOG3 POP POP POP JUMP JUMPDEST PUSH1 0x0 PUSH20 0xFFFFFFFFFFFFFFFFFFFFFFFFFFFFFFFFFFFFFFFF AND DUP4 PUSH20 0xFFFFFFFFFFFFFFFFFFFFFFFFFFFFFFFFFFFFFFFF AND EQ ISZERO PUSH2 0x1618 JUMPI PUSH1 0x40 MLOAD PUSH32 0x8C379A000000000000000000000000000000000000000000000000000000000 DUP2 MSTORE PUSH1 0x4 ADD PUSH2 0x160F SWAP1 PUSH2 0x1CE5 JUMP JUMPDEST PUSH1 0x40 MLOAD DUP1 SWAP2 SUB SWAP1 REVERT JUMPDEST PUSH1 0x0 PUSH20 0xFFFFFFFFFFFFFFFFFFFFFFFFFFFFFFFFFFFFFFFF AND DUP3 PUSH20 0xFFFFFFFFFFFFFFFFFFFFFFFFFFFFFFFFFFFFFFFF AND EQ ISZERO PUSH2 0x1688 JUMPI PUSH1 0x40 MLOAD PUSH32 0x8C379A000000000000000000000000000000000000000000000000000000000 DUP2 MSTORE PUSH1 0x4 ADD PUSH2 0x167F SWAP1 PUSH2 0x1DC5 JUMP JUMPDEST PUSH1 0x40 MLOAD DUP1 SWAP2 SUB SWAP1 REVERT JUMPDEST PUSH2 0x16F4 DUP2 PUSH1 0x40 MLOAD DUP1 PUSH1 0x60 ADD PUSH1 0x40 MSTORE DUP1 PUSH1 0x26 DUP2 MSTORE PUSH1 0x20 ADD PUSH2 0x23E4 PUSH1 0x26 SWAP2 CODECOPY PUSH1 0x1 PUSH1 0x0 DUP8 PUSH20 0xFFFFFFFFFFFFFFFFFFFFFFFFFFFFFFFFFFFFFFFF AND PUSH20 0xFFFFFFFFFFFFFFFFFFFFFFFFFFFFFFFFFFFFFFFF AND DUP2 MSTORE PUSH1 0x20 ADD SWAP1 DUP2 MSTORE PUSH1 0x20 ADD PUSH1 0x0 KECCAK256 SLOAD PUSH2 0xFE0 SWAP1 SWAP3 SWAP2 SWAP1 PUSH4 0xFFFFFFFF AND JUMP JUMPDEST PUSH1 0x1 PUSH1 0x0 DUP6 PUSH20 0xFFFFFFFFFFFFFFFFFFFFFFFFFFFFFFFFFFFFFFFF AND PUSH20 0xFFFFFFFFFFFFFFFFFFFFFFFFFFFFFFFFFFFFFFFF AND DUP2 MSTORE PUSH1 0x20 ADD SWAP1 DUP2 MSTORE PUSH1 0x20 ADD PUSH1 0x0 KECCAK256 DUP2 SWAP1 SSTORE POP PUSH2 0x1789 DUP2 PUSH1 0x1 PUSH1 0x0 DUP6 PUSH20 0xFFFFFFFFFFFFFFFFFFFFFFFFFFFFFFFFFFFFFFFF AND PUSH20 0xFFFFFFFFFFFFFFFFFFFFFFFFFFFFFFFFFFFFFFFF AND DUP2 MSTORE PUSH1 0x20 ADD SWAP1 DUP2 MSTORE PUSH1 0x20 ADD PUSH1 0x0 KECCAK256 SLOAD PUSH2 0x65B SWAP1 SWAP2 SWAP1 PUSH4 0xFFFFFFFF AND JUMP JUMPDEST PUSH1 0x1 PUSH1 0x0 DUP5 PUSH20 0xFFFFFFFFFFFFFFFFFFFFFFFFFFFFFFFFFFFFFFFF AND PUSH20 0xFFFFFFFFFFFFFFFFFFFFFFFFFFFFFFFFFFFFFFFF AND DUP2 MSTORE PUSH1 0x20 ADD SWAP1 DUP2 MSTORE PUSH1 0x20 ADD PUSH1 0x0 KECCAK256 DUP2 SWAP1 SSTORE POP DUP2 PUSH20 0xFFFFFFFFFFFFFFFFFFFFFFFFFFFFFFFFFFFFFFFF AND DUP4 PUSH20 0xFFFFFFFFFFFFFFFFFFFFFFFFFFFFFFFFFFFFFFFF AND PUSH32 0xDDF252AD1BE2C89B69C2B068FC378DAA952BA7F163C4A11628F55A4DF523B3EF DUP4 PUSH1 0x40 MLOAD PUSH2 0x1829 SWAP2 SWAP1 PUSH2 0x1E25 JUMP JUMPDEST PUSH1 0x40 MLOAD DUP1 SWAP2 SUB SWAP1 LOG3 POP POP POP JUMP JUMPDEST PUSH1 0x0 PUSH20 0xFFFFFFFFFFFFFFFFFFFFFFFFFFFFFFFFFFFFFFFF AND DUP2 PUSH20 0xFFFFFFFFFFFFFFFFFFFFFFFFFFFFFFFFFFFFFFFF AND EQ ISZERO PUSH2 0x18A6 JUMPI PUSH1 0x40 MLOAD PUSH32 0x8C379A000000000000000000000000000000000000000000000000000000000 DUP2 MSTORE PUSH1 0x4 ADD PUSH2 0x189D SWAP1 PUSH2 0x1D25 JUMP JUMPDEST PUSH1 0x40 MLOAD DUP1 SWAP2 SUB SWAP1 REVERT JUMPDEST DUP1 PUSH20 0xFFFFFFFFFFFFFFFFFFFFFFFFFFFFFFFFFFFFFFFF AND PUSH1 0x0 DUP1 SLOAD SWAP1 PUSH2 0x100 EXP SWAP1 DIV PUSH20 0xFFFFFFFFFFFFFFFFFFFFFFFFFFFFFFFFFFFFFFFF AND PUSH20 0xFFFFFFFFFFFFFFFFFFFFFFFFFFFFFFFFFFFFFFFF AND PUSH32 0x8BE0079C531659141344CD1FD0A4F28419497F9722A3DAAFE3B4186F6B6457E0 PUSH1 0x40 MLOAD PUSH1 0x40 MLOAD DUP1 SWAP2 SUB SWAP1 LOG3 DUP1 PUSH1 0x0 DUP1 PUSH2 0x100 EXP DUP2 SLOAD DUP2 PUSH20 0xFFFFFFFFFFFFFFFFFFFFFFFFFFFFFFFFFFFFFFFF MUL NOT AND SWAP1 DUP4 PUSH20 0xFFFFFFFFFFFFFFFFFFFFFFFFFFFFFFFFFFFFFFFF AND MUL OR SWAP1 SSTORE POP POP JUMP JUMPDEST PUSH1 0x0 DUP2 CALLDATALOAD SWAP1 POP PUSH2 0x1972 DUP2 PUSH2 0x238D JUMP JUMPDEST SWAP3 SWAP2 POP POP JUMP JUMPDEST PUSH1 0x0 DUP2 CALLDATALOAD SWAP1 POP PUSH2 0x1987 DUP2 PUSH2 0x23A4 JUMP JUMPDEST SWAP3 SWAP2 POP POP JUMP JUMPDEST PUSH1 0x0 PUSH1 0x20 DUP3 DUP5 SUB SLT ISZERO PUSH2 0x19A3 JUMPI PUSH2 0x19A2 PUSH2 0x20D3 JUMP JUMPDEST JUMPDEST PUSH1 0x0 PUSH2 0x19B1 DUP5 DUP3 DUP6 ADD PUSH2 0x1963 JUMP JUMPDEST SWAP2 POP POP SWAP3 SWAP2 POP POP JUMP JUMPDEST PUSH1 0x0 DUP1 PUSH1 0x40 DUP4 DUP6 SUB SLT ISZERO PUSH2 0x19D1 JUMPI PUSH2 0x19D0 PUSH2 0x20D3 JUMP JUMPDEST JUMPDEST PUSH1 0x0 PUSH2 0x19DF DUP6 DUP3 DUP7 ADD PUSH2 0x1963 JUMP JUMPDEST SWAP3 POP POP PUSH1 0x20 PUSH2 0x19F0 DUP6 DUP3 DUP7 ADD PUSH2 0x1963 JUMP JUMPDEST SWAP2 POP POP SWAP3 POP SWAP3 SWAP1 POP JUMP JUMPDEST PUSH1 0x0 DUP1 PUSH1 0x0 PUSH1 0x60 DUP5 DUP7 SUB SLT ISZERO PUSH2 0x1A13 JUMPI PUSH2 0x1A12 PUSH2 0x20D3 JUMP JUMPDEST JUMPDEST PUSH1 0x0 PUSH2 0x1A21 DUP7 DUP3 DUP8 ADD PUSH2 0x1963 JUMP JUMPDEST SWAP4 POP POP PUSH1 0x20 PUSH2 0x1A32 DUP7 DUP3 DUP8 ADD PUSH2 0x1963 JUMP JUMPDEST SWAP3 POP POP PUSH1 0x40 PUSH2 0x1A43 DUP7 DUP3 DUP8 ADD PUSH2 0x1978 JUMP JUMPDEST SWAP2 POP POP SWAP3 POP SWAP3 POP SWAP3 JUMP JUMPDEST PUSH1 0x0 DUP1 PUSH1 0x40 DUP4 DUP6 SUB SLT ISZERO PUSH2 0x1A64 JUMPI PUSH2 0x1A63 PUSH2 0x20D3 JUMP JUMPDEST JUMPDEST PUSH1 0x0 PUSH2 0x1A72 DUP6 DUP3 DUP7 ADD PUSH2 0x1963 JUMP JUMPDEST SWAP3 POP POP PUSH1 0x20 PUSH2 0x1A83 DUP6 DUP3 DUP7 ADD PUSH2 0x1978 JUMP JUMPDEST SWAP2 POP POP SWAP3 POP SWAP3 SWAP1 POP JUMP JUMPDEST PUSH1 0x0 PUSH1 0x20 DUP3 DUP5 SUB SLT ISZERO PUSH2 0x1AA3 JUMPI PUSH2 0x1AA2 PUSH2 0x20D3 JUMP JUMPDEST JUMPDEST PUSH1 0x0 PUSH2 0x1AB1 DUP5 DUP3 DUP6 ADD PUSH2 0x1978 JUMP JUMPDEST SWAP2 POP POP SWAP3 SWAP2 POP POP JUMP JUMPDEST PUSH2 0x1AC3 DUP2 PUSH2 0x1F8C JUMP JUMPDEST DUP3 MSTORE POP POP JUMP JUMPDEST PUSH2 0x1AD2 DUP2 PUSH2 0x1F9E JUMP JUMPDEST DUP3 MSTORE POP POP JUMP JUMPDEST PUSH1 0x0 PUSH2 0x1AE3 DUP3 PUSH2 0x1E5B JUMP JUMPDEST PUSH2 0x1AED DUP2 DUP6 PUSH2 0x1E66 JUMP JUMPDEST SWAP4 POP PUSH2 0x1AFD DUP2 DUP6 PUSH1 0x20 DUP7 ADD PUSH2 0x1FE1 JUMP JUMPDEST PUSH2 0x1B06 DUP2 PUSH2 0x20D8 JUMP JUMPDEST DUP5 ADD SWAP2 POP POP SWAP3 SWAP2 POP POP JUMP JUMPDEST PUSH1 0x0 PUSH2 0x1B1E PUSH1 0x25 DUP4 PUSH2 0x1E66 JUMP JUMPDEST SWAP2 POP PUSH2 0x1B29 DUP3 PUSH2 0x20E9 JUMP JUMPDEST PUSH1 0x40 DUP3 ADD SWAP1 POP SWAP2 SWAP1 POP JUMP JUMPDEST PUSH1 0x0 PUSH2 0x1B41 PUSH1 0x24 DUP4 PUSH2 0x1E66 JUMP JUMPDEST SWAP2 POP PUSH2 0x1B4C DUP3 PUSH2 0x2138 JUMP JUMPDEST PUSH1 0x40 DUP3 ADD SWAP1 POP SWAP2 SWAP1 POP JUMP JUMPDEST PUSH1 0x0 PUSH2 0x1B64 PUSH1 0x26 DUP4 PUSH2 0x1E66 JUMP JUMPDEST SWAP2 POP PUSH2 0x1B6F DUP3 PUSH2 0x2187 JUMP JUMPDEST PUSH1 0x40 DUP3 ADD SWAP1 POP SWAP2 SWAP1 POP JUMP JUMPDEST PUSH1 0x0 PUSH2 0x1B87 PUSH1 0x1B DUP4 PUSH2 0x1E66 JUMP JUMPDEST SWAP2 POP PUSH2 0x1B92 DUP3 PUSH2 0x21D6 JUMP JUMPDEST PUSH1 0x20 DUP3 ADD SWAP1 POP SWAP2 SWAP1 POP JUMP JUMPDEST PUSH1 0x0 PUSH2 0x1BAA PUSH1 0x21 DUP4 PUSH2 0x1E66 JUMP JUMPDEST SWAP2 POP PUSH2 0x1BB5 DUP3 PUSH2 0x21FF JUMP JUMPDEST PUSH1 0x40 DUP3 ADD SWAP1 POP SWAP2 SWAP1 POP JUMP JUMPDEST PUSH1 0x0 PUSH2 0x1BCD PUSH1 0x1F DUP4 PUSH2 0x1E66 JUMP JUMPDEST SWAP2 POP PUSH2 0x1BD8 DUP3 PUSH2 0x224E JUMP JUMPDEST PUSH1 0x20 DUP3 ADD SWAP1 POP SWAP2 SWAP1 POP JUMP JUMPDEST PUSH1 0x0 PUSH2 0x1BF0 PUSH1 0x20 DUP4 PUSH2 0x1E66 JUMP JUMPDEST SWAP2 POP PUSH2 0x1BFB DUP3 PUSH2 0x2277 JUMP JUMPDEST PUSH1 0x20 DUP3 ADD SWAP1 POP SWAP2 SWAP1 POP JUMP JUMPDEST PUSH1 0x0 PUSH2 0x1C13 PUSH1 0x23 DUP4 PUSH2 0x1E66 JUMP JUMPDEST SWAP2 POP PUSH2 0x1C1E DUP3 PUSH2 0x22A0 JUMP JUMPDEST PUSH1 0x40 DUP3 ADD SWAP1 POP SWAP2 SWAP1 POP JUMP JUMPDEST PUSH1 0x0 PUSH2 0x1C36 PUSH1 0x21 DUP4 PUSH2 0x1E66 JUMP JUMPDEST SWAP2 POP PUSH2 0x1C41 DUP3 PUSH2 0x22EF JUMP JUMPDEST PUSH1 0x40 DUP3 ADD SWAP1 POP SWAP2 SWAP1 POP JUMP JUMPDEST PUSH1 0x0 PUSH2 0x1C59 PUSH1 0x22 DUP4 PUSH2 0x1E66 JUMP JUMPDEST SWAP2 POP PUSH2 0x1C64 DUP3 PUSH2 0x233E JUMP JUMPDEST PUSH1 0x40 DUP3 ADD SWAP1 POP SWAP2 SWAP1 POP JUMP JUMPDEST PUSH2 0x1C78 DUP2 PUSH2 0x1FCA JUMP JUMPDEST DUP3 MSTORE POP POP JUMP JUMPDEST PUSH2 0x1C87 DUP2 PUSH2 0x1FD4 JUMP JUMPDEST DUP3 MSTORE POP POP JUMP JUMPDEST PUSH1 0x0 PUSH1 0x20 DUP3 ADD SWAP1 POP PUSH2 0x1CA2 PUSH1 0x0 DUP4 ADD DUP5 PUSH2 0x1ABA JUMP JUMPDEST SWAP3 SWAP2 POP POP JUMP JUMPDEST PUSH1 0x0 PUSH1 0x20 DUP3 ADD SWAP1 POP PUSH2 0x1CBD PUSH1 0x0 DUP4 ADD DUP5 PUSH2 0x1AC9 JUMP JUMPDEST SWAP3 SWAP2 POP POP JUMP JUMPDEST PUSH1 0x0 PUSH1 0x20 DUP3 ADD SWAP1 POP DUP2 DUP2 SUB PUSH1 0x0 DUP4 ADD MSTORE PUSH2 0x1CDD DUP2 DUP5 PUSH2 0x1AD8 JUMP JUMPDEST SWAP1 POP SWAP3 SWAP2 POP POP JUMP JUMPDEST PUSH1 0x0 PUSH1 0x20 DUP3 ADD SWAP1 POP DUP2 DUP2 SUB PUSH1 0x0 DUP4 ADD MSTORE PUSH2 0x1CFE DUP2 PUSH2 0x1B11 JUMP JUMPDEST SWAP1 POP SWAP2 SWAP1 POP JUMP JUMPDEST PUSH1 0x0 PUSH1 0x20 DUP3 ADD SWAP1 POP DUP2 DUP2 SUB PUSH1 0x0 DUP4 ADD MSTORE PUSH2 0x1D1E DUP2 PUSH2 0x1B34 JUMP JUMPDEST SWAP1 POP SWAP2 SWAP1 POP JUMP JUMPDEST PUSH1 0x0 PUSH1 0x20 DUP3 ADD SWAP1 POP DUP2 DUP2 SUB PUSH1 0x0 DUP4 ADD MSTORE PUSH2 0x1D3E DUP2 PUSH2 0x1B57 JUMP JUMPDEST SWAP1 POP SWAP2 SWAP1 POP JUMP JUMPDEST PUSH1 0x0 PUSH1 0x20 DUP3 ADD SWAP1 POP DUP2 DUP2 SUB PUSH1 0x0 DUP4 ADD MSTORE PUSH2 0x1D5E DUP2 PUSH2 0x1B7A JUMP JUMPDEST SWAP1 POP SWAP2 SWAP1 POP JUMP JUMPDEST PUSH1 0x0 PUSH1 0x20 DUP3 ADD SWAP1 POP DUP2 DUP2 SUB PUSH1 0x0 DUP4 ADD MSTORE PUSH2 0x1D7E DUP2 PUSH2 0x1B9D JUMP JUMPDEST SWAP1 POP SWAP2 SWAP1 POP JUMP JUMPDEST PUSH1 0x0 PUSH1 0x20 DUP3 ADD SWAP1 POP DUP2 DUP2 SUB PUSH1 0x0 DUP4 ADD MSTORE PUSH2 0x1D9E DUP2 PUSH2 0x1BC0 JUMP JUMPDEST SWAP1 POP SWAP2 SWAP1 POP JUMP JUMPDEST PUSH1 0x0 PUSH1 0x20 DUP3 ADD SWAP1 POP DUP2 DUP2 SUB PUSH1 0x0 DUP4 ADD MSTORE PUSH2 0x1DBE DUP2 PUSH2 0x1BE3 JUMP JUMPDEST SWAP1 POP SWAP2 SWAP1 POP JUMP JUMPDEST PUSH1 0x0 PUSH1 0x20 DUP3 ADD SWAP1 POP DUP2 DUP2 SUB PUSH1 0x0 DUP4 ADD MSTORE PUSH2 0x1DDE DUP2 PUSH2 0x1C06 JUMP JUMPDEST SWAP1 POP SWAP2 SWAP1 POP JUMP JUMPDEST PUSH1 0x0 PUSH1 0x20 DUP3 ADD SWAP1 POP DUP2 DUP2 SUB PUSH1 0x0 DUP4 ADD MSTORE PUSH2 0x1DFE DUP2 PUSH2 0x1C29 JUMP JUMPDEST SWAP1 POP SWAP2 SWAP1 POP JUMP JUMPDEST PUSH1 0x0 PUSH1 0x20 DUP3 ADD SWAP1 POP DUP2 DUP2 SUB PUSH1 0x0 DUP4 ADD MSTORE PUSH2 0x1E1E DUP2 PUSH2 0x1C4C JUMP JUMPDEST SWAP1 POP SWAP2 SWAP1 POP JUMP JUMPDEST PUSH1 0x0 PUSH1 0x20 DUP3 ADD SWAP1 POP PUSH2 0x1E3A PUSH1 0x0 DUP4 ADD DUP5 PUSH2 0x1C6F JUMP JUMPDEST SWAP3 SWAP2 POP POP JUMP JUMPDEST PUSH1 0x0 PUSH1 0x20 DUP3 ADD SWAP1 POP PUSH2 0x1E55 PUSH1 0x0 DUP4 ADD DUP5 PUSH2 0x1C7E JUMP JUMPDEST SWAP3 SWAP2 POP POP JUMP JUMPDEST PUSH1 0x0 DUP2 MLOAD SWAP1 POP SWAP2 SWAP1 POP JUMP JUMPDEST PUSH1 0x0 DUP3 DUP3 MSTORE PUSH1 0x20 DUP3 ADD SWAP1 POP SWAP3 SWAP2 POP POP JUMP JUMPDEST PUSH1 0x0 PUSH2 0x1E82 DUP3 PUSH2 0x1FCA JUMP JUMPDEST SWAP2 POP PUSH2 0x1E8D DUP4 PUSH2 0x1FCA JUMP JUMPDEST SWAP3 POP DUP3 PUSH32 0xFFFFFFFFFFFFFFFFFFFFFFFFFFFFFFFFFFFFFFFFFFFFFFFFFFFFFFFFFFFFFFFF SUB DUP3 GT ISZERO PUSH2 0x1EC2 JUMPI PUSH2 0x1EC1 PUSH2 0x2046 JUMP JUMPDEST JUMPDEST DUP3 DUP3 ADD SWAP1 POP SWAP3 SWAP2 POP POP JUMP JUMPDEST PUSH1 0x0 PUSH2 0x1ED8 DUP3 PUSH2 0x1FCA JUMP JUMPDEST SWAP2 POP PUSH2 0x1EE3 DUP4 PUSH2 0x1FCA JUMP JUMPDEST SWAP3 POP DUP3 PUSH2 0x1EF3 JUMPI PUSH2 0x1EF2 PUSH2 0x2075 JUMP JUMPDEST JUMPDEST DUP3 DUP3 DIV SWAP1 POP SWAP3 SWAP2 POP POP JUMP JUMPDEST PUSH1 0x0 PUSH2 0x1F09 DUP3 PUSH2 0x1FCA JUMP JUMPDEST SWAP2 POP PUSH2 0x1F14 DUP4 PUSH2 0x1FCA JUMP JUMPDEST SWAP3 POP DUP2 PUSH32 0xFFFFFFFFFFFFFFFFFFFFFFFFFFFFFFFFFFFFFFFFFFFFFFFFFFFFFFFFFFFFFFFF DIV DUP4 GT DUP3 ISZERO ISZERO AND ISZERO PUSH2 0x1F4D JUMPI PUSH2 0x1F4C PUSH2 0x2046 JUMP JUMPDEST JUMPDEST DUP3 DUP3 MUL SWAP1 POP SWAP3 SWAP2 POP POP JUMP JUMPDEST PUSH1 0x0 PUSH2 0x1F63 DUP3 PUSH2 0x1FCA JUMP JUMPDEST SWAP2 POP PUSH2 0x1F6E DUP4 PUSH2 0x1FCA JUMP JUMPDEST SWAP3 POP DUP3 DUP3 LT ISZERO PUSH2 0x1F81 JUMPI PUSH2 0x1F80 PUSH2 0x2046 JUMP JUMPDEST JUMPDEST DUP3 DUP3 SUB SWAP1 POP SWAP3 SWAP2 POP POP JUMP JUMPDEST PUSH1 0x0 PUSH2 0x1F97 DUP3 PUSH2 0x1FAA JUMP JUMPDEST SWAP1 POP SWAP2 SWAP1 POP JUMP JUMPDEST PUSH1 0x0 DUP2 ISZERO ISZERO SWAP1 POP SWAP2 SWAP1 POP JUMP JUMPDEST PUSH1 0x0 PUSH20 0xFFFFFFFFFFFFFFFFFFFFFFFFFFFFFFFFFFFFFFFF DUP3 AND SWAP1 POP SWAP2 SWAP1 POP JUMP JUMPDEST PUSH1 0x0 DUP2 SWAP1 POP SWAP2 SWAP1 POP JUMP JUMPDEST PUSH1 0x0 PUSH1 0xFF DUP3 AND SWAP1 POP SWAP2 SWAP1 POP JUMP JUMPDEST PUSH1 0x0 JUMPDEST DUP4 DUP2 LT ISZERO PUSH2 0x1FFF JUMPI DUP1 DUP3 ADD MLOAD DUP2 DUP5 ADD MSTORE PUSH1 0x20 DUP2 ADD SWAP1 POP PUSH2 0x1FE4 JUMP JUMPDEST DUP4 DUP2 GT ISZERO PUSH2 0x200E JUMPI PUSH1 0x0 DUP5 DUP5 ADD MSTORE JUMPDEST POP POP POP POP JUMP JUMPDEST PUSH1 0x0 PUSH1 0x2 DUP3 DIV SWAP1 POP PUSH1 0x1 DUP3 AND DUP1 PUSH2 0x202C JUMPI PUSH1 0x7F DUP3 AND SWAP2 POP JUMPDEST PUSH1 0x20 DUP3 LT DUP2 EQ ISZERO PUSH2 0x2040 JUMPI PUSH2 0x203F PUSH2 0x20A4 JUMP JUMPDEST JUMPDEST POP SWAP2 SWAP1 POP JUMP JUMPDEST PUSH32 0x4E487B7100000000000000000000000000000000000000000000000000000000 PUSH1 0x0 MSTORE PUSH1 0x11 PUSH1 0x4 MSTORE PUSH1 0x24 PUSH1 0x0 REVERT JUMPDEST PUSH32 0x4E487B7100000000000000000000000000000000000000000000000000000000 PUSH1 0x0 MSTORE PUSH1 0x12 PUSH1 0x4 MSTORE PUSH1 0x24 PUSH1 0x0 REVERT JUMPDEST PUSH32 0x4E487B7100000000000000000000000000000000000000000000000000000000 PUSH1 0x0 MSTORE PUSH1 0x22 PUSH1 0x4 MSTORE PUSH1 0x24 PUSH1 0x0 REVERT JUMPDEST PUSH1 0x0 DUP1 REVERT JUMPDEST PUSH1 0x0 PUSH1 0x1F NOT PUSH1 0x1F DUP4 ADD AND SWAP1 POP SWAP2 SWAP1 POP JUMP JUMPDEST PUSH32 0x42455032303A207472616E736665722066726F6D20746865207A65726F206164 PUSH1 0x0 DUP3 ADD MSTORE PUSH32 0x6472657373000000000000000000000000000000000000000000000000000000 PUSH1 0x20 DUP3 ADD MSTORE POP JUMP JUMPDEST PUSH32 0x42455032303A20617070726F76652066726F6D20746865207A65726F20616464 PUSH1 0x0 DUP3 ADD MSTORE PUSH32 0x7265737300000000000000000000000000000000000000000000000000000000 PUSH1 0x20 DUP3 ADD MSTORE POP JUMP JUMPDEST PUSH32 0x4F776E61626C653A206E6577206F776E657220697320746865207A65726F2061 PUSH1 0x0 DUP3 ADD MSTORE PUSH32 0x6464726573730000000000000000000000000000000000000000000000000000 PUSH1 0x20 DUP3 ADD MSTORE POP JUMP JUMPDEST PUSH32 0x536166654D6174683A206164646974696F6E206F766572666C6F770000000000 PUSH1 0x0 DUP3 ADD MSTORE POP JUMP JUMPDEST PUSH32 0x536166654D6174683A206D756C7469706C69636174696F6E206F766572666C6F PUSH1 0x0 DUP3 ADD MSTORE PUSH32 0x7700000000000000000000000000000000000000000000000000000000000000 PUSH1 0x20 DUP3 ADD MSTORE POP JUMP JUMPDEST PUSH32 0x42455032303A206D696E7420746F20746865207A65726F206164647265737300 PUSH1 0x0 DUP3 ADD MSTORE POP JUMP JUMPDEST PUSH32 0x4F776E61626C653A2063616C6C6572206973206E6F7420746865206F776E6572 PUSH1 0x0 DUP3 ADD MSTORE POP JUMP JUMPDEST PUSH32 0x42455032303A207472616E7366657220746F20746865207A65726F2061646472 PUSH1 0x0 DUP3 ADD MSTORE PUSH32 0x6573730000000000000000000000000000000000000000000000000000000000 PUSH1 0x20 DUP3 ADD MSTORE POP JUMP JUMPDEST PUSH32 0x42455032303A206275726E2066726F6D20746865207A65726F20616464726573 PUSH1 0x0 DUP3 ADD MSTORE PUSH32 0x7300000000000000000000000000000000000000000000000000000000000000 PUSH1 0x20 DUP3 ADD MSTORE POP JUMP JUMPDEST PUSH32 0x42455032303A20617070726F766520746F20746865207A65726F206164647265 PUSH1 0x0 DUP3 ADD MSTORE PUSH32 0x7373000000000000000000000000000000000000000000000000000000000000 PUSH1 0x20 DUP3 ADD MSTORE POP JUMP JUMPDEST PUSH2 0x2396 DUP2 PUSH2 0x1F8C JUMP JUMPDEST DUP2 EQ PUSH2 0x23A1 JUMPI PUSH1 0x0 DUP1 REVERT JUMPDEST POP JUMP JUMPDEST PUSH2 0x23AD DUP2 PUSH2 0x1FCA JUMP JUMPDEST DUP2 EQ PUSH2 0x23B8 JUMPI PUSH1 0x0 DUP1 REVERT JUMPDEST POP JUMP INVALID TIMESTAMP GASLIMIT POP ORIGIN ADDRESS GASPRICE KECCAK256 PUSH21 0x72616E7366657220616D6F756E7420657863656564 PUSH20 0x20616C6C6F77616E636542455032303A20747261 PUSH15 0x7366657220616D6F756E7420657863 PUSH6 0x656473206261 PUSH13 0x616E636542455032303A206465 PUSH4 0x72656173 PUSH6 0x6420616C6C6F PUSH24 0x616E63652062656C6F77207A65726F42455032303A206275 PUSH19 0x6E20616D6F756E742065786365656473206261 PUSH13 0x616E6365A26469706673582212 KECCAK256 PUSH27 0xAD81303596506FAB4C36078E2A857CA6442342321A32D3358654F3 RETURNDATACOPY PUSH20 0x448564736F6C6343000807003300000000000000 "
		},
		"gasEstimates": {
			"creation": {
				"codeDepositCost": "1870000",
				"executionCost": "infinite",
				"totalCost": "infinite"
			},
			"external": {
				"allowance(address,address)": "infinite",
				"approve(address,uint256)": "infinite",
				"balanceOf(address)": "2908",
				"currentSupply()": "2460",
				"decimals()": "2502",
				"decreaseAllowance(address,uint256)": "infinite",
				"getOwner()": "2602",
				"increaseAllowance(address,uint256)": "infinite",
				"mint(uint256)": "infinite",
				"name()": "infinite",
				"owner()": "2589",
				"renounceOwnership()": "30380",
				"symbol()": "infinite",
				"totalSupply()": "2505",
				"transfer(address,uint256)": "infinite",
				"transferFrom(address,address,uint256)": "infinite",
				"transferOwnership(address)": "30779"
			},
			"internal": {
				"_approve(address,address,uint256)": "infinite",
				"_burn(address,uint256)": "infinite",
				"_burnFrom(address,uint256)": "infinite",
				"_getTransferValue(uint256,uint256)": "infinite",
				"_initRateTable()": "infinite",
				"_mint(address,uint256)": "infinite",
				"_taxedTransfer(address,uint256)": "infinite",
				"_transfer(address,address,uint256)": "infinite"
			}
		},
		"methodIdentifiers": {
			"allowance(address,address)": "dd62ed3e",
			"approve(address,uint256)": "095ea7b3",
			"balanceOf(address)": "70a08231",
			"currentSupply()": "771282f6",
			"decimals()": "313ce567",
			"decreaseAllowance(address,uint256)": "a457c2d7",
			"getOwner()": "893d20e8",
			"increaseAllowance(address,uint256)": "39509351",
			"mint(uint256)": "a0712d68",
			"name()": "06fdde03",
			"owner()": "8da5cb5b",
			"renounceOwnership()": "715018a6",
			"symbol()": "95d89b41",
			"totalSupply()": "18160ddd",
			"transfer(address,uint256)": "a9059cbb",
			"transferFrom(address,address,uint256)": "23b872dd",
			"transferOwnership(address)": "f2fde38b"
		}
	},
	"abi": [
		{
			"inputs": [],
			"stateMutability": "nonpayable",
			"type": "constructor"
		},
		{
			"anonymous": false,
			"inputs": [
				{
					"indexed": true,
					"internalType": "address",
					"name": "owner",
					"type": "address"
				},
				{
					"indexed": true,
					"internalType": "address",
					"name": "spender",
					"type": "address"
				},
				{
					"indexed": false,
					"internalType": "uint256",
					"name": "value",
					"type": "uint256"
				}
			],
			"name": "Approval",
			"type": "event"
		},
		{
			"anonymous": false,
			"inputs": [
				{
					"indexed": true,
					"internalType": "address",
					"name": "previousOwner",
					"type": "address"
				},
				{
					"indexed": true,
					"internalType": "address",
					"name": "newOwner",
					"type": "address"
				}
			],
			"name": "OwnershipTransferred",
			"type": "event"
		},
		{
			"anonymous": false,
			"inputs": [
				{
					"indexed": true,
					"internalType": "address",
					"name": "_from",
					"type": "address"
				},
				{
					"indexed": false,
					"internalType": "uint256",
					"name": "_value",
					"type": "uint256"
				}
			],
			"name": "Receive",
			"type": "event"
		},
		{
			"anonymous": false,
			"inputs": [
				{
					"indexed": true,
					"internalType": "address",
					"name": "from",
					"type": "address"
				},
				{
					"indexed": true,
					"internalType": "address",
					"name": "to",
					"type": "address"
				},
				{
					"indexed": false,
					"internalType": "uint256",
					"name": "value",
					"type": "uint256"
				}
			],
			"name": "Transfer",
			"type": "event"
		},
		{
			"inputs": [
				{
					"internalType": "address",
					"name": "owner",
					"type": "address"
				},
				{
					"internalType": "address",
					"name": "spender",
					"type": "address"
				}
			],
			"name": "allowance",
			"outputs": [
				{
					"internalType": "uint256",
					"name": "",
					"type": "uint256"
				}
			],
			"stateMutability": "view",
			"type": "function"
		},
		{
			"inputs": [
				{
					"internalType": "address",
					"name": "spender",
					"type": "address"
				},
				{
					"internalType": "uint256",
					"name": "amount",
					"type": "uint256"
				}
			],
			"name": "approve",
			"outputs": [
				{
					"internalType": "bool",
					"name": "",
					"type": "bool"
				}
			],
			"stateMutability": "nonpayable",
			"type": "function"
		},
		{
			"inputs": [
				{
					"internalType": "address",
					"name": "account",
					"type": "address"
				}
			],
			"name": "balanceOf",
			"outputs": [
				{
					"internalType": "uint256",
					"name": "",
					"type": "uint256"
				}
			],
			"stateMutability": "view",
			"type": "function"
		},
		{
			"inputs": [],
			"name": "currentSupply",
			"outputs": [
				{
					"internalType": "uint256",
					"name": "",
					"type": "uint256"
				}
			],
			"stateMutability": "view",
			"type": "function"
		},
		{
			"inputs": [],
			"name": "decimals",
			"outputs": [
				{
					"internalType": "uint8",
					"name": "",
					"type": "uint8"
				}
			],
			"stateMutability": "view",
			"type": "function"
		},
		{
			"inputs": [
				{
					"internalType": "address",
					"name": "spender",
					"type": "address"
				},
				{
					"internalType": "uint256",
					"name": "subtractedValue",
					"type": "uint256"
				}
			],
			"name": "decreaseAllowance",
			"outputs": [
				{
					"internalType": "bool",
					"name": "",
					"type": "bool"
				}
			],
			"stateMutability": "nonpayable",
			"type": "function"
		},
		{
			"inputs": [],
			"name": "getOwner",
			"outputs": [
				{
					"internalType": "address",
					"name": "",
					"type": "address"
				}
			],
			"stateMutability": "view",
			"type": "function"
		},
		{
			"inputs": [
				{
					"internalType": "address",
					"name": "spender",
					"type": "address"
				},
				{
					"internalType": "uint256",
					"name": "addedValue",
					"type": "uint256"
				}
			],
			"name": "increaseAllowance",
			"outputs": [
				{
					"internalType": "bool",
					"name": "",
					"type": "bool"
				}
			],
			"stateMutability": "nonpayable",
			"type": "function"
		},
		{
			"inputs": [
				{
					"internalType": "uint256",
					"name": "amount",
					"type": "uint256"
				}
			],
			"name": "mint",
			"outputs": [
				{
					"internalType": "bool",
					"name": "",
					"type": "bool"
				}
			],
			"stateMutability": "nonpayable",
			"type": "function"
		},
		{
			"inputs": [],
			"name": "name",
			"outputs": [
				{
					"internalType": "string",
					"name": "",
					"type": "string"
				}
			],
			"stateMutability": "view",
			"type": "function"
		},
		{
			"inputs": [],
			"name": "owner",
			"outputs": [
				{
					"internalType": "address",
					"name": "",
					"type": "address"
				}
			],
			"stateMutability": "view",
			"type": "function"
		},
		{
			"inputs": [],
			"name": "renounceOwnership",
			"outputs": [],
			"stateMutability": "nonpayable",
			"type": "function"
		},
		{
			"inputs": [],
			"name": "symbol",
			"outputs": [
				{
					"internalType": "string",
					"name": "",
					"type": "string"
				}
			],
			"stateMutability": "view",
			"type": "function"
		},
		{
			"inputs": [],
			"name": "totalSupply",
			"outputs": [
				{
					"internalType": "uint256",
					"name": "",
					"type": "uint256"
				}
			],
			"stateMutability": "view",
			"type": "function"
		},
		{
			"inputs": [
				{
					"internalType": "address",
					"name": "recipient",
					"type": "address"
				},
				{
					"internalType": "uint256",
					"name": "amount",
					"type": "uint256"
				}
			],
			"name": "transfer",
			"outputs": [
				{
					"internalType": "bool",
					"name": "",
					"type": "bool"
				}
			],
			"stateMutability": "nonpayable",
			"type": "function"
		},
		{
			"inputs": [
				{
					"internalType": "address",
					"name": "sender",
					"type": "address"
				},
				{
					"internalType": "address",
					"name": "recipient",
					"type": "address"
				},
				{
					"internalType": "uint256",
					"name": "amount",
					"type": "uint256"
				}
			],
			"name": "transferFrom",
			"outputs": [
				{
					"internalType": "bool",
					"name": "",
					"type": "bool"
				}
			],
			"stateMutability": "nonpayable",
			"type": "function"
		},
		{
			"inputs": [
				{
					"internalType": "address",
					"name": "newOwner",
					"type": "address"
				}
			],
			"name": "transferOwnership",
			"outputs": [],
			"stateMutability": "nonpayable",
			"type": "function"
		},
		{
			"stateMutability": "payable",
			"type": "receive"
		}
	]
}